{
  "_format": "hh-sol-artifact-1",
  "contractName": "FPMMMarket",
  "sourceName": "contracts/FPMM_market.sol",
  "abi": [
    {
      "inputs": [
        {
          "internalType": "uint32",
          "name": "_fee",
          "type": "uint32"
        }
      ],
      "stateMutability": "nonpayable",
      "type": "constructor"
    },
    {
      "anonymous": false,
      "inputs": [
        {
          "indexed": true,
          "internalType": "address",
          "name": "buyer",
          "type": "address"
        },
        {
          "indexed": false,
          "internalType": "uint128",
          "name": "investmentAmount",
          "type": "uint128"
        },
        {
          "indexed": false,
          "internalType": "uint32",
          "name": "outcomeIndex",
          "type": "uint32"
        },
        {
          "indexed": false,
          "internalType": "uint256",
          "name": "outcomeTokensBought",
          "type": "uint256"
        }
      ],
      "name": "FPMMBuy",
      "type": "event"
    },
    {
      "anonymous": false,
      "inputs": [
        {
          "indexed": true,
          "internalType": "address",
          "name": "funder",
          "type": "address"
        },
        {
          "indexed": false,
          "internalType": "uint256",
          "name": "amountsAdded",
          "type": "uint256"
        }
      ],
      "name": "FPMMFundingAdded",
      "type": "event"
    },
    {
      "anonymous": false,
      "inputs": [
        {
          "indexed": true,
          "internalType": "address",
          "name": "funder",
          "type": "address"
        },
        {
          "indexed": false,
          "internalType": "uint256",
          "name": "collateralRemovedFromFeePool",
          "type": "uint256"
        },
        {
          "indexed": false,
          "internalType": "uint256",
          "name": "amountsRemoved",
          "type": "uint256"
        }
      ],
      "name": "FPMMFundingRemoved",
      "type": "event"
    },
    {
      "anonymous": false,
      "inputs": [
        {
          "indexed": true,
          "internalType": "uint256",
          "name": "marketId",
          "type": "uint256"
        },
        {
          "indexed": false,
          "internalType": "string[]",
          "name": "outcomes",
          "type": "string[]"
        },
        {
          "indexed": false,
          "internalType": "uint128",
          "name": "deadline",
          "type": "uint128"
        }
      ],
      "name": "FPMMMarketInit",
      "type": "event"
    },
    {
      "anonymous": false,
      "inputs": [
        {
          "indexed": true,
          "internalType": "address",
          "name": "seller",
          "type": "address"
        },
        {
          "indexed": false,
          "internalType": "uint128",
          "name": "returnAmount",
          "type": "uint128"
        },
        {
          "indexed": false,
          "internalType": "uint32",
          "name": "outcomeIndex",
          "type": "uint32"
        },
        {
          "indexed": false,
          "internalType": "uint256",
          "name": "outcomeTokensSold",
          "type": "uint256"
        }
      ],
      "name": "FPMMSell",
      "type": "event"
    },
    {
      "inputs": [],
      "name": "DECIMALS",
      "outputs": [
        {
          "internalType": "uint256",
          "name": "",
          "type": "uint256"
        }
      ],
      "stateMutability": "view",
      "type": "function"
    },
    {
      "inputs": [],
      "name": "ETH_TO_USDC_RATE",
      "outputs": [
        {
          "internalType": "uint256",
          "name": "",
          "type": "uint256"
        }
      ],
      "stateMutability": "view",
      "type": "function"
    },
    {
      "inputs": [],
      "name": "SCALING_FACTOR",
      "outputs": [
        {
          "internalType": "uint256",
          "name": "",
          "type": "uint256"
        }
      ],
      "stateMutability": "view",
      "type": "function"
    },
    {
      "inputs": [],
      "name": "addFunding",
      "outputs": [],
      "stateMutability": "payable",
      "type": "function"
    },
    {
      "inputs": [
        {
          "internalType": "uint256",
          "name": "",
          "type": "uint256"
        },
        {
          "internalType": "address",
          "name": "",
          "type": "address"
        },
        {
          "internalType": "uint32",
          "name": "",
          "type": "uint32"
        }
      ],
      "name": "balances",
      "outputs": [
        {
          "internalType": "uint256",
          "name": "",
          "type": "uint256"
        }
      ],
      "stateMutability": "view",
      "type": "function"
    },
    {
      "inputs": [
        {
          "internalType": "uint256",
          "name": "marketId",
          "type": "uint256"
        },
        {
          "internalType": "uint32",
          "name": "outcomeIndex",
          "type": "uint32"
        },
        {
          "internalType": "uint128",
          "name": "minOutcomeTokensToBuy",
          "type": "uint128"
        }
      ],
      "name": "buy",
      "outputs": [],
      "stateMutability": "payable",
      "type": "function"
    },
    {
      "inputs": [
        {
          "internalType": "uint256",
          "name": "marketId",
          "type": "uint256"
        },
        {
          "internalType": "uint128",
          "name": "investmentAmount",
          "type": "uint128"
        },
        {
          "internalType": "uint32",
          "name": "outcomeIndex",
          "type": "uint32"
        }
      ],
      "name": "calcBuyAmount",
      "outputs": [
        {
          "internalType": "uint128",
          "name": "",
          "type": "uint128"
        }
      ],
      "stateMutability": "view",
      "type": "function"
    },
    {
      "inputs": [
        {
          "internalType": "uint256",
          "name": "marketId",
          "type": "uint256"
        },
        {
          "internalType": "uint128",
          "name": "returnAmount",
          "type": "uint128"
        },
        {
          "internalType": "uint32",
          "name": "outcomeIndex",
          "type": "uint32"
        }
      ],
      "name": "calcSellAmount",
      "outputs": [
        {
          "internalType": "uint128",
          "name": "",
          "type": "uint128"
        }
      ],
      "stateMutability": "view",
      "type": "function"
    },
    {
      "inputs": [
        {
          "internalType": "uint256",
          "name": "marketId",
          "type": "uint256"
        },
        {
          "internalType": "uint32",
          "name": "outcomeIndex",
          "type": "uint32"
        }
      ],
      "name": "claimWinnings",
      "outputs": [],
      "stateMutability": "nonpayable",
      "type": "function"
    },
    {
      "inputs": [],
      "name": "collateralToken",
      "outputs": [
        {
          "internalType": "address",
          "name": "",
          "type": "address"
        }
      ],
      "stateMutability": "view",
      "type": "function"
    },
    {
      "inputs": [
        {
          "internalType": "uint256",
          "name": "ethAmount",
          "type": "uint256"
        }
      ],
      "name": "convertEthToUsdc",
      "outputs": [
        {
          "internalType": "uint256",
          "name": "",
          "type": "uint256"
        }
      ],
      "stateMutability": "pure",
      "type": "function"
    },
    {
      "inputs": [
        {
          "internalType": "uint256",
          "name": "usdcAmount",
          "type": "uint256"
        }
      ],
      "name": "convertUsdcToEth",
      "outputs": [
        {
          "internalType": "uint256",
          "name": "",
          "type": "uint256"
        }
      ],
      "stateMutability": "pure",
      "type": "function"
    },
    {
      "inputs": [],
      "name": "currentLiquidity",
      "outputs": [
        {
          "internalType": "uint256",
          "name": "",
          "type": "uint256"
        }
      ],
      "stateMutability": "view",
      "type": "function"
    },
    {
      "inputs": [
        {
          "internalType": "uint256",
          "name": "marketId",
          "type": "uint256"
        }
      ],
      "name": "disableMarket",
      "outputs": [],
      "stateMutability": "nonpayable",
      "type": "function"
    },
    {
      "inputs": [],
      "name": "fee",
      "outputs": [
        {
          "internalType": "uint32",
          "name": "",
          "type": "uint32"
        }
      ],
      "stateMutability": "view",
      "type": "function"
    },
    {
      "inputs": [],
      "name": "feesAccrued",
      "outputs": [
        {
          "internalType": "uint256",
          "name": "",
          "type": "uint256"
        }
      ],
      "stateMutability": "view",
      "type": "function"
    },
    {
      "inputs": [
        {
          "internalType": "address",
          "name": "account",
          "type": "address"
        }
      ],
      "name": "feesWithdrawableBy",
      "outputs": [
        {
          "internalType": "uint256",
          "name": "",
          "type": "uint256"
        }
      ],
      "stateMutability": "view",
      "type": "function"
    },
    {
      "inputs": [
        {
          "internalType": "address",
          "name": "user",
          "type": "address"
        }
      ],
      "name": "getAllUserBets",
      "outputs": [
        {
          "components": [
            {
              "internalType": "uint256",
              "name": "marketId",
              "type": "uint256"
            },
            {
              "internalType": "uint256[]",
              "name": "bets",
              "type": "uint256[]"
            },
            {
              "internalType": "bool",
              "name": "isActive",
              "type": "bool"
            },
            {
              "internalType": "bool",
              "name": "isSettled",
              "type": "bool"
            }
          ],
          "internalType": "struct FPMMStructs.UserMarketBets[]",
          "name": "",
          "type": "tuple[]"
        }
      ],
      "stateMutability": "view",
      "type": "function"
    },
    {
      "inputs": [],
      "name": "getCollateralToken",
      "outputs": [
        {
          "internalType": "address",
          "name": "",
          "type": "address"
        }
      ],
      "stateMutability": "view",
      "type": "function"
    },
    {
      "inputs": [],
      "name": "getFee",
      "outputs": [
        {
          "internalType": "uint32",
          "name": "",
          "type": "uint32"
        }
      ],
      "stateMutability": "view",
      "type": "function"
    },
    {
      "inputs": [
        {
          "internalType": "uint256",
          "name": "marketId",
          "type": "uint256"
        }
      ],
      "name": "getMarket",
      "outputs": [
        {
          "components": [
            {
              "internalType": "uint32",
              "name": "numOutcomes",
              "type": "uint32"
            },
            {
              "internalType": "uint128",
              "name": "deadline",
              "type": "uint128"
            },
            {
              "internalType": "bool",
              "name": "isActive",
              "type": "bool"
            },
            {
              "internalType": "bool",
              "name": "isSettled",
              "type": "bool"
            }
          ],
          "internalType": "struct FPMMStructs.FPMMMarket",
          "name": "",
          "type": "tuple"
        }
      ],
      "stateMutability": "view",
      "type": "function"
    },
    {
      "inputs": [],
      "name": "getNumMarkets",
      "outputs": [
        {
          "internalType": "uint256",
          "name": "",
          "type": "uint256"
        }
      ],
      "stateMutability": "view",
      "type": "function"
    },
    {
      "inputs": [
        {
          "internalType": "uint256",
          "name": "marketId",
          "type": "uint256"
        },
        {
          "internalType": "uint32",
          "name": "outcomeIndex",
          "type": "uint32"
        }
      ],
      "name": "getOutcome",
      "outputs": [
        {
          "components": [
            {
              "internalType": "string",
              "name": "name",
              "type": "string"
            },
            {
              "internalType": "uint128",
              "name": "numSharesInPool",
              "type": "uint128"
            },
            {
              "internalType": "bool",
              "name": "winner",
              "type": "bool"
            }
          ],
          "internalType": "struct FPMMStructs.Outcome",
          "name": "",
          "type": "tuple"
        }
      ],
      "stateMutability": "view",
      "type": "function"
    },
    {
      "inputs": [],
      "name": "getTreasury",
      "outputs": [
        {
          "internalType": "address",
          "name": "",
          "type": "address"
        }
      ],
      "stateMutability": "view",
      "type": "function"
    },
    {
      "inputs": [
        {
          "internalType": "address",
          "name": "user",
          "type": "address"
        }
      ],
      "name": "getUserBalance",
      "outputs": [
        {
          "internalType": "uint256",
          "name": "",
          "type": "uint256"
        }
      ],
      "stateMutability": "view",
      "type": "function"
    },
    {
      "inputs": [
        {
          "internalType": "address",
          "name": "user",
          "type": "address"
        },
        {
          "internalType": "uint256",
          "name": "marketId",
          "type": "uint256"
        },
        {
          "internalType": "uint32",
          "name": "outcomeIndex",
          "type": "uint32"
        }
      ],
      "name": "getUserMarketShare",
      "outputs": [
        {
          "internalType": "uint256",
          "name": "",
          "type": "uint256"
        }
      ],
      "stateMutability": "view",
      "type": "function"
    },
    {
      "inputs": [
        {
          "internalType": "string[]",
          "name": "outcomeNames",
          "type": "string[]"
        },
        {
          "internalType": "uint128",
          "name": "deadline",
          "type": "uint128"
        }
      ],
      "name": "initMarket",
      "outputs": [],
      "stateMutability": "nonpayable",
      "type": "function"
    },
    {
      "inputs": [
        {
          "internalType": "address",
          "name": "",
          "type": "address"
        }
      ],
      "name": "liquidityBalance",
      "outputs": [
        {
          "internalType": "uint256",
          "name": "",
          "type": "uint256"
        }
      ],
      "stateMutability": "view",
      "type": "function"
    },
    {
      "inputs": [],
      "name": "liquidityPool",
      "outputs": [
        {
          "internalType": "uint256",
          "name": "",
          "type": "uint256"
        }
      ],
      "stateMutability": "view",
      "type": "function"
    },
    {
      "inputs": [
        {
          "internalType": "uint256",
          "name": "",
          "type": "uint256"
        }
      ],
      "name": "markets",
      "outputs": [
        {
          "internalType": "uint32",
          "name": "numOutcomes",
          "type": "uint32"
        },
        {
          "internalType": "uint128",
          "name": "deadline",
          "type": "uint128"
        },
        {
          "internalType": "bool",
          "name": "isActive",
          "type": "bool"
        },
        {
          "internalType": "bool",
          "name": "isSettled",
          "type": "bool"
        }
      ],
      "stateMutability": "view",
      "type": "function"
    },
    {
      "inputs": [],
      "name": "numMarkets",
      "outputs": [
        {
          "internalType": "uint256",
          "name": "",
          "type": "uint256"
        }
      ],
      "stateMutability": "view",
      "type": "function"
    },
    {
      "inputs": [
        {
          "internalType": "uint256",
          "name": "",
          "type": "uint256"
        },
        {
          "internalType": "uint32",
          "name": "",
          "type": "uint32"
        }
      ],
      "name": "outcomes",
      "outputs": [
        {
          "internalType": "string",
          "name": "name",
          "type": "string"
        },
        {
          "internalType": "uint128",
          "name": "numSharesInPool",
          "type": "uint128"
        },
        {
          "internalType": "bool",
          "name": "winner",
          "type": "bool"
        }
      ],
      "stateMutability": "view",
      "type": "function"
    },
    {
      "inputs": [],
      "name": "owner",
      "outputs": [
        {
          "internalType": "address",
          "name": "",
          "type": "address"
        }
      ],
      "stateMutability": "view",
      "type": "function"
    },
    {
      "inputs": [
        {
          "internalType": "uint128",
          "name": "fundsToRemove",
          "type": "uint128"
        }
      ],
      "name": "removeFunding",
      "outputs": [],
      "stateMutability": "payable",
      "type": "function"
    },
    {
      "inputs": [
        {
          "internalType": "uint256",
          "name": "marketId",
          "type": "uint256"
        },
        {
          "internalType": "uint128",
          "name": "returnAmount",
          "type": "uint128"
        },
        {
          "internalType": "uint32",
          "name": "outcomeIndex",
          "type": "uint32"
        },
        {
          "internalType": "uint128",
          "name": "maxOutcomeTokensToSell",
          "type": "uint128"
        }
      ],
      "name": "sell",
      "outputs": [],
      "stateMutability": "nonpayable",
      "type": "function"
    },
    {
      "inputs": [
        {
          "internalType": "uint32",
          "name": "_fee",
          "type": "uint32"
        }
      ],
      "name": "setFee",
      "outputs": [],
      "stateMutability": "nonpayable",
      "type": "function"
    },
    {
      "inputs": [
        {
          "internalType": "uint256",
          "name": "marketId",
          "type": "uint256"
        },
        {
          "internalType": "uint32",
          "name": "outcomeIndex",
          "type": "uint32"
        }
      ],
      "name": "setMarketWinner",
      "outputs": [],
      "stateMutability": "nonpayable",
      "type": "function"
    },
    {
      "inputs": [
        {
          "internalType": "uint32",
          "name": "_fee",
          "type": "uint32"
        }
      ],
      "name": "setTreasurerFee",
      "outputs": [],
      "stateMutability": "nonpayable",
      "type": "function"
    },
    {
      "inputs": [
        {
          "internalType": "address",
          "name": "treasurer",
          "type": "address"
        }
      ],
      "name": "setTreasury",
      "outputs": [],
      "stateMutability": "nonpayable",
      "type": "function"
    },
    {
      "inputs": [
        {
          "internalType": "uint256",
          "name": "marketId",
          "type": "uint256"
        },
        {
          "internalType": "uint32",
          "name": "outcomeIndex",
          "type": "uint32"
        }
      ],
      "name": "setWinner",
      "outputs": [],
      "stateMutability": "nonpayable",
      "type": "function"
    },
    {
      "inputs": [],
      "name": "treasuryFee",
      "outputs": [
        {
          "internalType": "uint32",
          "name": "",
          "type": "uint32"
        }
      ],
      "stateMutability": "view",
      "type": "function"
    },
    {
      "inputs": [],
      "name": "treasuryWallet",
      "outputs": [
        {
          "internalType": "address",
          "name": "",
          "type": "address"
        }
      ],
      "stateMutability": "view",
      "type": "function"
    },
    {
      "inputs": [
        {
          "internalType": "uint256",
          "name": "marketId",
          "type": "uint256"
        },
        {
          "internalType": "uint128",
          "name": "deadline",
          "type": "uint128"
        }
      ],
      "name": "updateDeadline",
      "outputs": [],
      "stateMutability": "nonpayable",
      "type": "function"
    }
  ],
  "bytecode": "0x608060405234801561001057600080fd5b50604051615e87380380615e87833981810160405281019061003291906100db565b80600260006101000a81548163ffffffff021916908363ffffffff16021790555033600560006101000a81548173ffffffffffffffffffffffffffffffffffffffff021916908373ffffffffffffffffffffffffffffffffffffffff16021790555050610108565b600080fd5b600063ffffffff82169050919050565b6100b88161009f565b81146100c357600080fd5b50565b6000815190506100d5816100af565b92915050565b6000602082840312156100f1576100f061009a565b5b60006100ff848285016100c6565b91505092915050565b615d70806101176000396000f3fe60806040526004361061025c5760003560e01c806360b1791411610144578063c86df029116100b6578063dfef00941161007a578063dfef009414610935578063e94119ce14610951578063eb44fdd31461098e578063ef4cadc5146109cb578063f0f44260146109f6578063f244244f14610a1f5761025c565b8063c86df0291461085b578063cc32d17614610877578063ced72f87146108a2578063dd296480146108cd578063ddca3f431461090a5761025c565b80639642366311610108578063964236631461070c5780639ecabe9714610737578063b1283e7714610776578063b2016bd4146107b6578063ba2abf26146107e1578063c392b9a61461081e5761025c565b806360b1791414610625578063665a11ca14610662578063794da9cc1461068d5780638da5cb5b146106b657806394db0595146106e15761025c565b80633064c8b0116101dd57806347734892116101a157806347734892146105055780634ac4e727146105425780634f5fa3f71461057f578063565c1714146105a8578063573c16f6146105d15780635dc48d8e146105fc5761025c565b80633064c8b01461041e57806335a0ca931461045b5780633b19e84a146104845780634626402b146104af57806346caf2ae146104da5761025c565b806326e04f9d1161022457806326e04f9d14610337578063295c39a5146103625780632b38fe621461038d5780632c381775146103ca5780632e0f2625146103f35761025c565b806306ba8618146102615780630f2539e01461029e57806313dce938146102c757806316dbd776146102d15780631ab971ab1461030e575b600080fd5b34801561026d57600080fd5b5061028860048036038101906102839190613c1d565b610a48565b6040516102959190613c7f565b60405180910390f35b3480156102aa57600080fd5b506102c560048036038101906102c09190613ce2565b610ac1565b005b6102cf610e09565b005b3480156102dd57600080fd5b506102f860048036038101906102f39190613d49565b610f19565b6040516103059190613c7f565b60405180910390f35b34801561031a57600080fd5b5061033560048036038101906103309190613d76565b610fcb565b005b34801561034357600080fd5b5061034c61107f565b6040516103599190613c7f565b60405180910390f35b34801561036e57600080fd5b50610377611085565b6040516103849190613c7f565b60405180910390f35b34801561039957600080fd5b506103b460048036038101906103af9190613da3565b61108f565b6040516103c19190613eed565b60405180910390f35b3480156103d657600080fd5b506103f160048036038101906103ec919061412a565b6111d1565b005b3480156103ff57600080fd5b5061040861158e565b6040516104159190613c7f565b60405180910390f35b34801561042a57600080fd5b5061044560048036038101906104409190614186565b611593565b6040516104529190613c7f565b60405180910390f35b34801561046757600080fd5b50610482600480360381019061047d9190613da3565b6115c5565b005b34801561049057600080fd5b50610499611796565b6040516104a691906141e8565b60405180910390f35b3480156104bb57600080fd5b506104c4611850565b6040516104d191906141e8565b60405180910390f35b3480156104e657600080fd5b506104ef611876565b6040516104fc9190613c7f565b60405180910390f35b34801561051157600080fd5b5061052c60048036038101906105279190613d49565b611880565b6040516105399190613c7f565b60405180910390f35b34801561054e57600080fd5b5061056960048036038101906105649190614203565b6118c9565b6040516105769190614265565b60405180910390f35b34801561058b57600080fd5b506105a660048036038101906105a19190614280565b611c4c565b005b3480156105b457600080fd5b506105cf60048036038101906105ca91906142c0565b611e2a565b005b3480156105dd57600080fd5b506105e6611f43565b6040516105f39190613c7f565b60405180910390f35b34801561060857600080fd5b50610623600480360381019061061e9190613d76565b611f49565b005b34801561063157600080fd5b5061064c600480360381019061064791906142c0565b611ffd565b6040516106599190613c7f565b60405180910390f35b34801561066e57600080fd5b50610677612021565b6040516106849190613c7f565b60405180910390f35b34801561069957600080fd5b506106b460048036038101906106af9190613da3565b612027565b005b3480156106c257600080fd5b506106cb612331565b6040516106d891906141e8565b60405180910390f35b3480156106ed57600080fd5b506106f6612357565b6040516107039190613c7f565b60405180910390f35b34801561071857600080fd5b5061072161235d565b60405161072e91906141e8565b60405180910390f35b34801561074357600080fd5b5061075e60048036038101906107599190613da3565b612386565b60405161076d93929190614346565b60405180910390f35b34801561078257600080fd5b5061079d600480360381019061079891906142c0565b61246e565b6040516107ad9493929190614393565b60405180910390f35b3480156107c257600080fd5b506107cb6124e4565b6040516107d891906141e8565b60405180910390f35b3480156107ed57600080fd5b5061080860048036038101906108039190613d49565b612508565b60405161081591906145bb565b60405180910390f35b34801561082a57600080fd5b5061084560048036038101906108409190614203565b61274e565b6040516108529190614265565b60405180910390f35b610875600480360381019061087091906145dd565b612b0b565b005b34801561088357600080fd5b5061088c612e07565b6040516108999190614630565b60405180910390f35b3480156108ae57600080fd5b506108b7612e1d565b6040516108c49190614630565b60405180910390f35b3480156108d957600080fd5b506108f460048036038101906108ef9190613d49565b612e37565b6040516109019190613c7f565b60405180910390f35b34801561091657600080fd5b5061091f612e4f565b60405161092c9190614630565b60405180910390f35b61094f600480360381019061094a919061464b565b612e65565b005b34801561095d57600080fd5b50610978600480360381019061097391906142c0565b6131b4565b6040516109859190613c7f565b60405180910390f35b34801561099a57600080fd5b506109b560048036038101906109b091906142c0565b6131e3565b6040516109c291906146dc565b60405180910390f35b3480156109d757600080fd5b506109e06132b6565b6040516109ed9190613c7f565b60405180910390f35b348015610a0257600080fd5b50610a1d6004803603810190610a189190613d49565b6132c7565b005b348015610a2b57600080fd5b50610a466004803603810190610a419190613da3565b61339b565b005b60006009600084815260200190815260200160002060008573ffffffffffffffffffffffffffffffffffffffff1673ffffffffffffffffffffffffffffffffffffffff16815260200190815260200160002060008363ffffffff1663ffffffff1681526020019081526020016000205490509392505050565b6000610ade846fffffffffffffffffffffffffffffffff16611ffd565b90506000610aed8683866118c9565b9050826fffffffffffffffffffffffffffffffff16816fffffffffffffffffffffffffffffffff161115610b56576040517f08c379a0000000000000000000000000000000000000000000000000000000008152600401610b4d90614743565b60405180910390fd5b6009600087815260200190815260200160002060003373ffffffffffffffffffffffffffffffffffffffff1673ffffffffffffffffffffffffffffffffffffffff16815260200190815260200160002060008563ffffffff1663ffffffff16815260200190815260200160002054816fffffffffffffffffffffffffffffffff161115610c18576040517f08c379a0000000000000000000000000000000000000000000000000000000008152600401610c0f906147af565b60405180910390fd5b806fffffffffffffffffffffffffffffffff166009600088815260200190815260200160002060003373ffffffffffffffffffffffffffffffffffffffff1673ffffffffffffffffffffffffffffffffffffffff16815260200190815260200160002060008663ffffffff1663ffffffff1681526020019081526020016000206000828254610ca791906147fe565b925050819055506064600260009054906101000a900463ffffffff1663ffffffff1683610cd49190614832565b610cde91906148a3565b60046000828254610cef91906148d4565b9250508190555060006064600260009054906101000a900463ffffffff1663ffffffff1684610d1e9190614832565b610d2891906148a3565b83610d3391906147fe565b9050610d476007600a8984898760006135c3565b6000610d64876fffffffffffffffffffffffffffffffff166131b4565b90503373ffffffffffffffffffffffffffffffffffffffff166108fc829081150290604051600060405180830381858888f19350505050158015610dac573d6000803e3d6000fd5b503373ffffffffffffffffffffffffffffffffffffffff167fd119a55f8addb8a2ff33c692b1d13c26a766c3f16aee9126a733534d47aa81c2858886604051610df793929190614943565b60405180910390a25050505050505050565b60003411610e4c576040517f08c379a0000000000000000000000000000000000000000000000000000000008152600401610e43906149c6565b60405180910390fd5b6000610e5734611ffd565b905080600860003373ffffffffffffffffffffffffffffffffffffffff1673ffffffffffffffffffffffffffffffffffffffff1681526020019081526020016000206000828254610ea891906148d4565b925050819055508060036000828254610ec191906148d4565b925050819055503373ffffffffffffffffffffffffffffffffffffffff167f7ebb51c69763e72edc59161ffe7e6c51ab52010637c6d4e8ca433f5b43c876cb82604051610f0e9190613c7f565b60405180910390a250565b600080600354600860008573ffffffffffffffffffffffffffffffffffffffff1673ffffffffffffffffffffffffffffffffffffffff16815260200190815260200160002054600454610f6c9190614832565b610f7691906148a3565b9050600860008473ffffffffffffffffffffffffffffffffffffffff1673ffffffffffffffffffffffffffffffffffffffff1681526020019081526020016000205481610fc391906148d4565b915050919050565b600560009054906101000a900473ffffffffffffffffffffffffffffffffffffffff1673ffffffffffffffffffffffffffffffffffffffff163373ffffffffffffffffffffffffffffffffffffffff161461105b576040517f08c379a000000000000000000000000000000000000000000000000000000000815260040161105290614a32565b60405180910390fd5b80600260006101000a81548163ffffffff021916908363ffffffff16021790555050565b60015481565b6000600154905090565b611097613a94565b600a600084815260200190815260200160002060008363ffffffff1663ffffffff1681526020019081526020016000206040518060600160405290816000820180546110e290614a81565b80601f016020809104026020016040519081016040528092919081815260200182805461110e90614a81565b801561115b5780601f106111305761010080835404028352916020019161115b565b820191906000526020600020905b81548152906001019060200180831161113e57829003601f168201915b505050505081526020016001820160009054906101000a90046fffffffffffffffffffffffffffffffff166fffffffffffffffffffffffffffffffff166fffffffffffffffffffffffffffffffff1681526020016001820160109054906101000a900460ff161515151581525050905092915050565b6000825111611215576040517f08c379a000000000000000000000000000000000000000000000000000000000815260040161120c90614afe565b60405180910390fd5b6101008251111561125b576040517f08c379a000000000000000000000000000000000000000000000000000000000815260040161125290614b6a565b60405180910390fd5b42816fffffffffffffffffffffffffffffffff16116112af576040517f08c379a00000000000000000000000000000000000000000000000000000000081526004016112a690614bd6565b60405180910390fd5b60006003549050600081116112f9576040517f08c379a00000000000000000000000000000000000000000000000000000000081526004016112f090614c42565b60405180910390fd5b60006001805461130991906148d4565b905080600181905550600084519050600060405180608001604052808363ffffffff168152602001866fffffffffffffffffffffffffffffffff168152602001600115158152602001600015158152509050806007600085815260200190815260200160002060008201518160000160006101000a81548163ffffffff021916908363ffffffff16021790555060208201518160000160046101000a8154816fffffffffffffffffffffffffffffffff02191690836fffffffffffffffffffffffffffffffff16021790555060408201518160000160146101000a81548160ff02191690831515021790555060608201518160000160156101000a81548160ff02191690831515021790555090505060008263ffffffff168561142c91906148a3565b905060005b8363ffffffff168163ffffffff16101561154a576040518060600160405280898363ffffffff168151811061146957611468614c62565b5b60200260200101518152602001836fffffffffffffffffffffffffffffffff16815260200160001515815250600a600087815260200190815260200160002060008363ffffffff1663ffffffff16815260200190815260200160002060008201518160000190816114da9190614e33565b5060208201518160010160006101000a8154816fffffffffffffffffffffffffffffffff02191690836fffffffffffffffffffffffffffffffff16021790555060408201518160010160106101000a81548160ff0219169083151502179055509050508080600101915050611431565b50837f413a0255d79470114fc16c403c7e791ea572bf8776a21aea08820e65201936f2888860405161157d929190614fc7565b60405180910390a250505050505050565b600681565b600960205282600052604060002060205281600052604060002060205280600052604060002060009250925050505481565b600560009054906101000a900473ffffffffffffffffffffffffffffffffffffffff1673ffffffffffffffffffffffffffffffffffffffff163373ffffffffffffffffffffffffffffffffffffffff1614611655576040517f08c379a000000000000000000000000000000000000000000000000000000000815260040161164c90615043565b60405180910390fd5b60006007600084815260200190815260200160002090508060000160159054906101000a900460ff16156116be576040517f08c379a00000000000000000000000000000000000000000000000000000000081526004016116b5906150af565b60405180910390fd5b60005b8160000160009054906101000a900463ffffffff1663ffffffff168163ffffffff161015611756578263ffffffff168163ffffffff1603611749576001600a600086815260200190815260200160002060008363ffffffff1663ffffffff16815260200190815260200160002060010160106101000a81548160ff0219169083151502179055505b80806001019150506116c1565b5060008160000160146101000a81548160ff02191690831515021790555060018160000160156101000a81548160ff021916908315150217905550505050565b6000600560009054906101000a900473ffffffffffffffffffffffffffffffffffffffff1673ffffffffffffffffffffffffffffffffffffffff163373ffffffffffffffffffffffffffffffffffffffff1614611828576040517f08c379a000000000000000000000000000000000000000000000000000000000815260040161181f9061511b565b60405180910390fd5b600660009054906101000a900473ffffffffffffffffffffffffffffffffffffffff16905090565b600660009054906101000a900473ffffffffffffffffffffffffffffffffffffffff1681565b6000600354905090565b6000600860008373ffffffffffffffffffffffffffffffffffffffff1673ffffffffffffffffffffffffffffffffffffffff168152602001908152602001600020549050919050565b600080836fffffffffffffffffffffffffffffffff161161191f576040517f08c379a000000000000000000000000000000000000000000000000000000000815260040161191690615187565b60405180910390fd5b600154841115611964576040517f08c379a000000000000000000000000000000000000000000000000000000000815260040161195b906151f3565b60405180910390fd5b60006007600086815260200190815260200160002090508060000160009054906101000a900463ffffffff1663ffffffff168363ffffffff16106119dd576040517f08c379a00000000000000000000000000000000000000000000000000000000081526004016119d49061525f565b60405180910390fd5b8060000160149054906101000a900460ff16611a2e576040517f08c379a0000000000000000000000000000000000000000000000000000000008152600401611a25906152cb565b60405180910390fd5b8060000160159054906101000a900460ff1615611a80576040517f08c379a0000000000000000000000000000000000000000000000000000000008152600401611a77906150af565b60405180910390fd5b6000611a9d856fffffffffffffffffffffffffffffffff16611ffd565b90506000611aae6007600a89613889565b905060006064600260009054906101000a900463ffffffff1663ffffffff1684611ad89190614832565b611ae291906148a3565b83611aed91906147fe565b90506000828763ffffffff1681518110611b0a57611b09614c62565b5b6020026020010151905060005b83518163ffffffff161015611bb1578763ffffffff168163ffffffff1614611b9e5782848263ffffffff1681518110611b5357611b52614c62565b5b6020026020010151611b6591906152eb565b848263ffffffff1681518110611b7e57611b7d614c62565b5b602002602001015183611b91919061532f565b611b9b919061536c565b91505b8080611ba99061539d565b915050611b17565b506000816fffffffffffffffffffffffffffffffff1611611c07576040517f08c379a0000000000000000000000000000000000000000000000000000000008152600401611bfe90615415565b60405180910390fd5b828763ffffffff1681518110611c2057611c1f614c62565b5b60200260200101518183611c349190615435565b611c3e91906152eb565b955050505050509392505050565b600560009054906101000a900473ffffffffffffffffffffffffffffffffffffffff1673ffffffffffffffffffffffffffffffffffffffff163373ffffffffffffffffffffffffffffffffffffffff1614611cdc576040517f08c379a0000000000000000000000000000000000000000000000000000000008152600401611cd3906154c5565b60405180910390fd5b60006007600084815260200190815260200160002090508060000160149054906101000a900460ff16611d44576040517f08c379a0000000000000000000000000000000000000000000000000000000008152600401611d3b906152cb565b60405180910390fd5b8060000160159054906101000a900460ff1615611d96576040517f08c379a0000000000000000000000000000000000000000000000000000000008152600401611d8d906150af565b60405180910390fd5b42826fffffffffffffffffffffffffffffffff1611611dea576040517f08c379a0000000000000000000000000000000000000000000000000000000008152600401611de190614bd6565b60405180910390fd5b818160000160046101000a8154816fffffffffffffffffffffffffffffffff02191690836fffffffffffffffffffffffffffffffff160217905550505050565b600560009054906101000a900473ffffffffffffffffffffffffffffffffffffffff1673ffffffffffffffffffffffffffffffffffffffff163373ffffffffffffffffffffffffffffffffffffffff1614611eba576040517f08c379a0000000000000000000000000000000000000000000000000000000008152600401611eb190615531565b60405180910390fd5b60006007600083815260200190815260200160002090508060000160149054906101000a900460ff16611f22576040517f08c379a0000000000000000000000000000000000000000000000000000000008152600401611f199061559d565b60405180910390fd5b60008160000160146101000a81548160ff0219169083151502179055505050565b610a0981565b600560009054906101000a900473ffffffffffffffffffffffffffffffffffffffff1673ffffffffffffffffffffffffffffffffffffffff163373ffffffffffffffffffffffffffffffffffffffff1614611fd9576040517f08c379a0000000000000000000000000000000000000000000000000000000008152600401611fd090614a32565b60405180910390fd5b80600660146101000a81548163ffffffff021916908363ffffffff16021790555050565b60008061200983613a7a565b9050610a09816120199190614832565b915050919050565b60035481565b60006007600084815260200190815260200160002090508060000160159054906101000a900460ff1661208f576040517f08c379a000000000000000000000000000000000000000000000000000000000815260040161208690615609565b60405180910390fd5b6000600a600085815260200190815260200160002060008463ffffffff1663ffffffff16815260200190815260200160002090508060010160109054906101000a900460ff16612114576040517f08c379a000000000000000000000000000000000000000000000000000000000815260040161210b90615675565b60405180910390fd5b60006009600086815260200190815260200160002060003373ffffffffffffffffffffffffffffffffffffffff1673ffffffffffffffffffffffffffffffffffffffff16815260200190815260200160002060008563ffffffff1663ffffffff168152602001908152602001600020549050600081116121c9576040517f08c379a00000000000000000000000000000000000000000000000000000000081526004016121c0906156e1565b60405180910390fd5b60006064600260009054906101000a900463ffffffff1660646121ec9190615701565b63ffffffff16836121fd9190614832565b61220791906148a3565b905060006009600088815260200190815260200160002060003373ffffffffffffffffffffffffffffffffffffffff1673ffffffffffffffffffffffffffffffffffffffff16815260200190815260200160002060008763ffffffff1663ffffffff1681526020019081526020016000208190555060003373ffffffffffffffffffffffffffffffffffffffff16826040516122a29061576a565b60006040518083038185875af1925050503d80600081146122df576040519150601f19603f3d011682016040523d82523d6000602084013e6122e4565b606091505b5050905080612328576040517f08c379a000000000000000000000000000000000000000000000000000000000815260040161231f906157cb565b60405180910390fd5b50505050505050565b600560009054906101000a900473ffffffffffffffffffffffffffffffffffffffff1681565b60045481565b60008060009054906101000a900473ffffffffffffffffffffffffffffffffffffffff16905090565b600a602052816000526040600020602052806000526040600020600091509150508060000180546123b690614a81565b80601f01602080910402602001604051908101604052809291908181526020018280546123e290614a81565b801561242f5780601f106124045761010080835404028352916020019161242f565b820191906000526020600020905b81548152906001019060200180831161241257829003601f168201915b5050505050908060010160009054906101000a90046fffffffffffffffffffffffffffffffff16908060010160109054906101000a900460ff16905083565b60076020528060005260406000206000915090508060000160009054906101000a900463ffffffff16908060000160049054906101000a90046fffffffffffffffffffffffffffffffff16908060000160149054906101000a900460ff16908060000160159054906101000a900460ff16905084565b60008054906101000a900473ffffffffffffffffffffffffffffffffffffffff1681565b6060600060015467ffffffffffffffff81111561252857612527613f14565b5b60405190808252806020026020018201604052801561256157816020015b61254e613ac9565b8152602001906001900390816125465790505b5090506000600190505b600154811161274457600060076000838152602001908152602001600020905060008160000160009054906101000a900463ffffffff1663ffffffff1667ffffffffffffffff8111156125c1576125c0613f14565b5b6040519080825280602002602001820160405280156125ef5781602001602082028036833780820191505090505b50905060005b8260000160009054906101000a900463ffffffff1663ffffffff168163ffffffff1610156126bd576009600085815260200190815260200160002060008873ffffffffffffffffffffffffffffffffffffffff1673ffffffffffffffffffffffffffffffffffffffff16815260200190815260200160002060008263ffffffff1663ffffffff16815260200190815260200160002054828263ffffffff16815181106126a4576126a3614c62565b5b60200260200101818152505080806001019150506125f5565b5060405180608001604052808481526020018281526020018360000160149054906101000a900460ff16151581526020018360000160159054906101000a900460ff1615158152508460018561271391906147fe565b8151811061272457612723614c62565b5b60200260200101819052505050808061273c906157eb565b91505061256b565b5080915050919050565b600080836fffffffffffffffffffffffffffffffff16116127a4576040517f08c379a000000000000000000000000000000000000000000000000000000000815260040161279b9061587f565b60405180910390fd5b6001548411156127e9576040517f08c379a00000000000000000000000000000000000000000000000000000000081526004016127e0906151f3565b60405180910390fd5b6000612806846fffffffffffffffffffffffffffffffff16611ffd565b905060006007600087815260200190815260200160002090508060000160009054906101000a900463ffffffff1663ffffffff168463ffffffff1610612881576040517f08c379a00000000000000000000000000000000000000000000000000000000081526004016128789061525f565b60405180910390fd5b8060000160149054906101000a900460ff166128d2576040517f08c379a00000000000000000000000000000000000000000000000000000000081526004016128c9906152cb565b60405180910390fd5b8060000160159054906101000a900460ff1615612924576040517f08c379a000000000000000000000000000000000000000000000000000000000815260040161291b906150af565b60405180910390fd5b60006129336007600a89613889565b905060006064600660149054906101000a900463ffffffff1663ffffffff168561295d919061532f565b612967919061536c565b6064600260009054906101000a900463ffffffff1663ffffffff168661298d919061532f565b612997919061536c565b856129a291906152eb565b6129ac91906152eb565b90506000828763ffffffff16815181106129c9576129c8614c62565b5b6020026020010151905060005b83518163ffffffff161015612a70578763ffffffff168163ffffffff1614612a5d5782848263ffffffff1681518110612a1257612a11614c62565b5b6020026020010151612a249190615435565b848263ffffffff1681518110612a3d57612a3c614c62565b5b602002602001015183612a50919061532f565b612a5a919061536c565b91505b8080612a689061539d565b9150506129d6565b506000816fffffffffffffffffffffffffffffffff1611612ac6576040517f08c379a0000000000000000000000000000000000000000000000000000000008152600401612abd90615415565b60405180910390fd5b8082848963ffffffff1681518110612ae157612ae0614c62565b5b6020026020010151612af39190615435565b612afd91906152eb565b955050505050509392505050565b6000612b1634611ffd565b90506000612b2585348661274e565b9050826fffffffffffffffffffffffffffffffff16816fffffffffffffffffffffffffffffffff161015612b8e576040517f08c379a0000000000000000000000000000000000000000000000000000000008152600401612b85906158eb565b60405180910390fd5b6064600260009054906101000a900463ffffffff1663ffffffff1683612bb49190614832565b612bbe91906148a3565b60046000828254612bcf91906148d4565b925050819055506000612c106064600660149054906101000a900463ffffffff1663ffffffff1685612c019190614832565b612c0b91906148a3565b6131b4565b9050600660009054906101000a900473ffffffffffffffffffffffffffffffffffffffff1673ffffffffffffffffffffffffffffffffffffffff166108fc64e8d4a5100083612c5f9190614832565b9081150290604051600060405180830381858888f19350505050158015612c8a573d6000803e3d6000fd5b5060006064600660149054906101000a900463ffffffff1663ffffffff1685612cb39190614832565b612cbd91906148a3565b6064600260009054906101000a900463ffffffff1663ffffffff1686612ce39190614832565b612ced91906148a3565b85612cf891906152eb565b612d0291906152eb565b9050612d166007600a89848a8860016135c3565b826fffffffffffffffffffffffffffffffff166009600089815260200190815260200160002060003373ffffffffffffffffffffffffffffffffffffffff1673ffffffffffffffffffffffffffffffffffffffff16815260200190815260200160002060008863ffffffff1663ffffffff1681526020019081526020016000206000828254612da591906148d4565b925050819055503373ffffffffffffffffffffffffffffffffffffffff167f285fd84012d60ebf3e087ae762bc6298ae35d7dbe0a659a56dd670656c17e656858886604051612df693929190614943565b60405180910390a250505050505050565b600660149054906101000a900463ffffffff1681565b6000600260009054906101000a900463ffffffff16905090565b60086020528060005260406000206000915090505481565b600260009054906101000a900463ffffffff1681565b6000816fffffffffffffffffffffffffffffffff1611612eba576040517f08c379a0000000000000000000000000000000000000000000000000000000008152600401612eb190615957565b60405180910390fd5b600354816fffffffffffffffffffffffffffffffff161115612f11576040517f08c379a0000000000000000000000000000000000000000000000000000000008152600401612f08906159c3565b60405180910390fd5b806fffffffffffffffffffffffffffffffff16600860003373ffffffffffffffffffffffffffffffffffffffff1673ffffffffffffffffffffffffffffffffffffffff168152602001908152602001600020541015612fa5576040517f08c379a0000000000000000000000000000000000000000000000000000000008152600401612f9c90615a2f565b60405180910390fd5b6000600354826fffffffffffffffffffffffffffffffff16600454612fca9190614832565b612fd491906148a3565b90506000612fe133610f19565b905060008111613026576040517f08c379a000000000000000000000000000000000000000000000000000000000815260040161301d90615a9b565b60405180910390fd5b6000613031826131b4565b905064e8d4a51000816130449190614832565b471015613086576040517f08c379a000000000000000000000000000000000000000000000000000000000815260040161307d90615b07565b60405180910390fd5b3373ffffffffffffffffffffffffffffffffffffffff166108fc64e8d4a51000836130b19190614832565b9081150290604051600060405180830381858888f193505050501580156130dc573d6000803e3d6000fd5b5082600460008282546130ef91906147fe565b92505081905550836fffffffffffffffffffffffffffffffff16600860003373ffffffffffffffffffffffffffffffffffffffff1673ffffffffffffffffffffffffffffffffffffffff168152602001908152602001600020600082825461315791906147fe565b925050819055503373ffffffffffffffffffffffffffffffffffffffff167f8338d96d1ac03fc732036bb25b1469d0568ef83e329cc80df18ec1b705c6fa1d85856040516131a6929190615b27565b60405180910390a250505050565b6000610a096006600a6131c79190615c83565b836131d29190614832565b6131dc91906148a3565b9050919050565b6131eb613af5565b600760008381526020019081526020016000206040518060800160405290816000820160009054906101000a900463ffffffff1663ffffffff1663ffffffff1681526020016000820160049054906101000a90046fffffffffffffffffffffffffffffffff166fffffffffffffffffffffffffffffffff166fffffffffffffffffffffffffffffffff1681526020016000820160149054906101000a900460ff161515151581526020016000820160159054906101000a900460ff1615151515815250509050919050565b6006600a6132c49190615c83565b81565b600560009054906101000a900473ffffffffffffffffffffffffffffffffffffffff1673ffffffffffffffffffffffffffffffffffffffff163373ffffffffffffffffffffffffffffffffffffffff1614613357576040517f08c379a000000000000000000000000000000000000000000000000000000000815260040161334e90615d1a565b60405180910390fd5b80600660006101000a81548173ffffffffffffffffffffffffffffffffffffffff021916908373ffffffffffffffffffffffffffffffffffffffff16021790555050565b600560009054906101000a900473ffffffffffffffffffffffffffffffffffffffff1673ffffffffffffffffffffffffffffffffffffffff163373ffffffffffffffffffffffffffffffffffffffff161461342b576040517f08c379a000000000000000000000000000000000000000000000000000000000815260040161342290615043565b60405180910390fd5b60006007600084815260200190815260200160002090508060000160149054906101000a900460ff16613493576040517f08c379a000000000000000000000000000000000000000000000000000000000815260040161348a906152cb565b60405180910390fd5b8060000160159054906101000a900460ff16156134e5576040517f08c379a00000000000000000000000000000000000000000000000000000000081526004016134dc906150af565b60405180910390fd5b60005b8160000160009054906101000a900463ffffffff1663ffffffff168163ffffffff161015613583576000600a600086815260200190815260200160002060008363ffffffff1663ffffffff16815260200190815260200160002090508363ffffffff168263ffffffff16036135755760018160010160106101000a81548160ff0219169083151502179055505b5080806001019150506134e8565b5060008160000160146101000a81548160ff02191690831515021790555060018160000160156101000a81548160ff021916908315150217905550505050565b60008760008781526020019081526020016000206040518060800160405290816000820160009054906101000a900463ffffffff1663ffffffff1663ffffffff1681526020016000820160049054906101000a90046fffffffffffffffffffffffffffffffff166fffffffffffffffffffffffffffffffff166fffffffffffffffffffffffffffffffff1681526020016000820160149054906101000a900460ff161515151581526020016000820160159054906101000a900460ff161515151581525050905060008160000151905060005b8163ffffffff168163ffffffff16101561387d5760008960008a815260200190815260200160002060008363ffffffff1663ffffffff168152602001908152602001600020905060008160010160009054906101000a90046fffffffffffffffffffffffffffffffff16905085156137bd578763ffffffff168363ffffffff1603613771578689826137289190615435565b61373291906152eb565b8260010160006101000a8154816fffffffffffffffffffffffffffffffff02191690836fffffffffffffffffffffffffffffffff1602179055506137b8565b888161377d9190615435565b8260010160006101000a8154816fffffffffffffffffffffffffffffffff02191690836fffffffffffffffffffffffffffffffff1602179055505b61386e565b8763ffffffff168363ffffffff1603613826578887826137dd9190615435565b6137e791906152eb565b8260010160006101000a8154816fffffffffffffffffffffffffffffffff02191690836fffffffffffffffffffffffffffffffff16021790555061386d565b888161383291906152eb565b8260010160006101000a8154816fffffffffffffffffffffffffffffffff02191690836fffffffffffffffffffffffffffffffff1602179055505b5b50508080600101915050613696565b50505050505050505050565b606060008460008481526020019081526020016000206040518060800160405290816000820160009054906101000a900463ffffffff1663ffffffff1663ffffffff1681526020016000820160049054906101000a90046fffffffffffffffffffffffffffffffff166fffffffffffffffffffffffffffffffff166fffffffffffffffffffffffffffffffff1681526020016000820160149054906101000a900460ff161515151581526020016000820160159054906101000a900460ff161515151581525050905060008160000151905060008163ffffffff1667ffffffffffffffff81111561397d5761397c613f14565b5b6040519080825280602002602001820160405280156139ab5781602001602082028036833780820191505090505b50905060005b8263ffffffff168163ffffffff161015613a6c5786600087815260200190815260200160002060008263ffffffff1663ffffffff16815260200190815260200160002060010160009054906101000a90046fffffffffffffffffffffffffffffffff16828263ffffffff1681518110613a2d57613a2c614c62565b5b60200260200101906fffffffffffffffffffffffffffffffff1690816fffffffffffffffffffffffffffffffff168152505080806001019150506139b1565b508093505050509392505050565b600064e8d4a5100082613a8d91906148a3565b9050919050565b60405180606001604052806060815260200160006fffffffffffffffffffffffffffffffff1681526020016000151581525090565b604051806080016040528060008152602001606081526020016000151581526020016000151581525090565b6040518060800160405280600063ffffffff16815260200160006fffffffffffffffffffffffffffffffff1681526020016000151581526020016000151581525090565b6000604051905090565b600080fd5b600080fd5b600073ffffffffffffffffffffffffffffffffffffffff82169050919050565b6000613b7882613b4d565b9050919050565b613b8881613b6d565b8114613b9357600080fd5b50565b600081359050613ba581613b7f565b92915050565b6000819050919050565b613bbe81613bab565b8114613bc957600080fd5b50565b600081359050613bdb81613bb5565b92915050565b600063ffffffff82169050919050565b613bfa81613be1565b8114613c0557600080fd5b50565b600081359050613c1781613bf1565b92915050565b600080600060608486031215613c3657613c35613b43565b5b6000613c4486828701613b96565b9350506020613c5586828701613bcc565b9250506040613c6686828701613c08565b9150509250925092565b613c7981613bab565b82525050565b6000602082019050613c946000830184613c70565b92915050565b60006fffffffffffffffffffffffffffffffff82169050919050565b613cbf81613c9a565b8114613cca57600080fd5b50565b600081359050613cdc81613cb6565b92915050565b60008060008060808587031215613cfc57613cfb613b43565b5b6000613d0a87828801613bcc565b9450506020613d1b87828801613ccd565b9350506040613d2c87828801613c08565b9250506060613d3d87828801613ccd565b91505092959194509250565b600060208284031215613d5f57613d5e613b43565b5b6000613d6d84828501613b96565b91505092915050565b600060208284031215613d8c57613d8b613b43565b5b6000613d9a84828501613c08565b91505092915050565b60008060408385031215613dba57613db9613b43565b5b6000613dc885828601613bcc565b9250506020613dd985828601613c08565b9150509250929050565b600081519050919050565b600082825260208201905092915050565b60005b83811015613e1d578082015181840152602081019050613e02565b60008484015250505050565b6000601f19601f8301169050919050565b6000613e4582613de3565b613e4f8185613dee565b9350613e5f818560208601613dff565b613e6881613e29565b840191505092915050565b613e7c81613c9a565b82525050565b60008115159050919050565b613e9781613e82565b82525050565b60006060830160008301518482036000860152613eba8282613e3a565b9150506020830151613ecf6020860182613e73565b506040830151613ee26040860182613e8e565b508091505092915050565b60006020820190508181036000830152613f078184613e9d565b905092915050565b600080fd5b7f4e487b7100000000000000000000000000000000000000000000000000000000600052604160045260246000fd5b613f4c82613e29565b810181811067ffffffffffffffff82111715613f6b57613f6a613f14565b5b80604052505050565b6000613f7e613b39565b9050613f8a8282613f43565b919050565b600067ffffffffffffffff821115613faa57613fa9613f14565b5b602082029050602081019050919050565b600080fd5b600080fd5b600067ffffffffffffffff821115613fe057613fdf613f14565b5b613fe982613e29565b9050602081019050919050565b82818337600083830152505050565b600061401861401384613fc5565b613f74565b90508281526020810184848401111561403457614033613fc0565b5b61403f848285613ff6565b509392505050565b600082601f83011261405c5761405b613f0f565b5b813561406c848260208601614005565b91505092915050565b600061408861408384613f8f565b613f74565b905080838252602082019050602084028301858111156140ab576140aa613fbb565b5b835b818110156140f257803567ffffffffffffffff8111156140d0576140cf613f0f565b5b8086016140dd8982614047565b855260208501945050506020810190506140ad565b5050509392505050565b600082601f83011261411157614110613f0f565b5b8135614121848260208601614075565b91505092915050565b6000806040838503121561414157614140613b43565b5b600083013567ffffffffffffffff81111561415f5761415e613b48565b5b61416b858286016140fc565b925050602061417c85828601613ccd565b9150509250929050565b60008060006060848603121561419f5761419e613b43565b5b60006141ad86828701613bcc565b93505060206141be86828701613b96565b92505060406141cf86828701613c08565b9150509250925092565b6141e281613b6d565b82525050565b60006020820190506141fd60008301846141d9565b92915050565b60008060006060848603121561421c5761421b613b43565b5b600061422a86828701613bcc565b935050602061423b86828701613ccd565b925050604061424c86828701613c08565b9150509250925092565b61425f81613c9a565b82525050565b600060208201905061427a6000830184614256565b92915050565b6000806040838503121561429757614296613b43565b5b60006142a585828601613bcc565b92505060206142b685828601613ccd565b9150509250929050565b6000602082840312156142d6576142d5613b43565b5b60006142e484828501613bcc565b91505092915050565b600082825260208201905092915050565b600061430982613de3565b61431381856142ed565b9350614323818560208601613dff565b61432c81613e29565b840191505092915050565b61434081613e82565b82525050565b6000606082019050818103600083015261436081866142fe565b905061436f6020830185614256565b61437c6040830184614337565b949350505050565b61438d81613be1565b82525050565b60006080820190506143a86000830187614384565b6143b56020830186614256565b6143c26040830185614337565b6143cf6060830184614337565b95945050505050565b600081519050919050565b600082825260208201905092915050565b6000819050602082019050919050565b61440d81613bab565b82525050565b600081519050919050565b600082825260208201905092915050565b6000819050602082019050919050565b600061444b8383614404565b60208301905092915050565b6000602082019050919050565b600061446f82614413565b614479818561441e565b93506144848361442f565b8060005b838110156144b557815161449c888261443f565b97506144a783614457565b925050600181019050614488565b5085935050505092915050565b60006080830160008301516144da6000860182614404565b50602083015184820360208601526144f28282614464565b91505060408301516145076040860182613e8e565b50606083015161451a6060860182613e8e565b508091505092915050565b600061453183836144c2565b905092915050565b6000602082019050919050565b6000614551826143d8565b61455b81856143e3565b93508360208202850161456d856143f4565b8060005b858110156145a9578484038952815161458a8582614525565b945061459583614539565b925060208a01995050600181019050614571565b50829750879550505050505092915050565b600060208201905081810360008301526145d58184614546565b905092915050565b6000806000606084860312156145f6576145f5613b43565b5b600061460486828701613bcc565b935050602061461586828701613c08565b925050604061462686828701613ccd565b9150509250925092565b60006020820190506146456000830184614384565b92915050565b60006020828403121561466157614660613b43565b5b600061466f84828501613ccd565b91505092915050565b61468181613be1565b82525050565b60808201600082015161469d6000850182614678565b5060208201516146b06020850182613e73565b5060408201516146c36040850182613e8e565b5060608201516146d66060850182613e8e565b50505050565b60006080820190506146f16000830184614687565b92915050565b7f53656c6c696e67206d6f7265207468616e206578706563746564000000000000600082015250565b600061472d601a836142ed565b9150614738826146f7565b602082019050919050565b6000602082019050818103600083015261475c81614720565b9050919050565b7f496e73756666696369656e742062616c616e6365000000000000000000000000600082015250565b60006147996014836142ed565b91506147a482614763565b602082019050919050565b600060208201905081810360008301526147c88161478c565b9050919050565b7f4e487b7100000000000000000000000000000000000000000000000000000000600052601160045260246000fd5b600061480982613bab565b915061481483613bab565b925082820390508181111561482c5761482b6147cf565b5b92915050565b600061483d82613bab565b915061484883613bab565b925082820261485681613bab565b9150828204841483151761486d5761486c6147cf565b5b5092915050565b7f4e487b7100000000000000000000000000000000000000000000000000000000600052601260045260246000fd5b60006148ae82613bab565b91506148b983613bab565b9250826148c9576148c8614874565b5b828204905092915050565b60006148df82613bab565b91506148ea83613bab565b9250828201905080821115614902576149016147cf565b5b92915050565b6000819050919050565b600061492d61492861492384613c9a565b614908565b613bab565b9050919050565b61493d81614912565b82525050565b60006060820190506149586000830186614256565b6149656020830185614384565b6149726040830184614934565b949350505050565b7f41646465642066756e6473206d75737420626520706f73697469766500000000600082015250565b60006149b0601c836142ed565b91506149bb8261497a565b602082019050919050565b600060208201905081810360008301526149df816149a3565b9050919050565b7f4f6e6c79206f776e65722063616e207365742066656500000000000000000000600082015250565b6000614a1c6016836142ed565b9150614a27826149e6565b602082019050919050565b60006020820190508181036000830152614a4b81614a0f565b9050919050565b7f4e487b7100000000000000000000000000000000000000000000000000000000600052602260045260246000fd5b60006002820490506001821680614a9957607f821691505b602082108103614aac57614aab614a52565b5b50919050565b7f4f7574636f6d65732061727261792063616e6e6f7420626520656d7074790000600082015250565b6000614ae8601e836142ed565b9150614af382614ab2565b602082019050919050565b60006020820190508181036000830152614b1781614adb565b9050919050565b7f546f6f206d616e79206f7574636f6d6573000000000000000000000000000000600082015250565b6000614b546011836142ed565b9150614b5f82614b1e565b602082019050919050565b60006020820190508181036000830152614b8381614b47565b9050919050565b7f446561646c696e65206d75737420626520696e20746865206675747572650000600082015250565b6000614bc0601e836142ed565b9150614bcb82614b8a565b602082019050919050565b60006020820190508181036000830152614bef81614bb3565b9050919050565b7f4e6f206c697175696469747920696e2074686520706f6f6c0000000000000000600082015250565b6000614c2c6018836142ed565b9150614c3782614bf6565b602082019050919050565b60006020820190508181036000830152614c5b81614c1f565b9050919050565b7f4e487b7100000000000000000000000000000000000000000000000000000000600052603260045260246000fd5b60008190508160005260206000209050919050565b60006020601f8301049050919050565b600082821b905092915050565b600060088302614cf37fffffffffffffffffffffffffffffffffffffffffffffffffffffffffffffffff82614cb6565b614cfd8683614cb6565b95508019841693508086168417925050509392505050565b6000614d30614d2b614d2684613bab565b614908565b613bab565b9050919050565b6000819050919050565b614d4a83614d15565b614d5e614d5682614d37565b848454614cc3565b825550505050565b600090565b614d73614d66565b614d7e818484614d41565b505050565b5b81811015614da257614d97600082614d6b565b600181019050614d84565b5050565b601f821115614de757614db881614c91565b614dc184614ca6565b81016020851015614dd0578190505b614de4614ddc85614ca6565b830182614d83565b50505b505050565b600082821c905092915050565b6000614e0a60001984600802614dec565b1980831691505092915050565b6000614e238383614df9565b9150826002028217905092915050565b614e3c82613de3565b67ffffffffffffffff811115614e5557614e54613f14565b5b614e5f8254614a81565b614e6a828285614da6565b600060209050601f831160018114614e9d5760008415614e8b578287015190505b614e958582614e17565b865550614efd565b601f198416614eab86614c91565b60005b82811015614ed357848901518255600182019150602085019450602081019050614eae565b86831015614ef05784890151614eec601f891682614df9565b8355505b6001600288020188555050505b505050505050565b600081519050919050565b600082825260208201905092915050565b6000819050602082019050919050565b6000614f3d8383613e3a565b905092915050565b6000602082019050919050565b6000614f5d82614f05565b614f678185614f10565b935083602082028501614f7985614f21565b8060005b85811015614fb55784840389528151614f968582614f31565b9450614fa183614f45565b925060208a01995050600181019050614f7d565b50829750879550505050505092915050565b60006040820190508181036000830152614fe18185614f52565b9050614ff06020830184614256565b9392505050565b7f4f6e6c79206f776e65722063616e207365742077696e6e657200000000000000600082015250565b600061502d6019836142ed565b915061503882614ff7565b602082019050919050565b6000602082019050818103600083015261505c81615020565b9050919050565b7f4d61726b657420697320616c726561647920736574746c656400000000000000600082015250565b60006150996019836142ed565b91506150a482615063565b602082019050919050565b600060208201905081810360008301526150c88161508c565b9050919050565b7f4f6e6c79206f776e65722063616e207365652074726561737572657200000000600082015250565b6000615105601c836142ed565b9150615110826150cf565b602082019050919050565b60006020820190508181036000830152615134816150f8565b9050919050565b7f4d75737420626520706f73697469766500000000000000000000000000000000600082015250565b60006151716010836142ed565b915061517c8261513b565b602082019050919050565b600060208201905081810360008301526151a081615164565b9050919050565b7f496e76616c6964206d61726b6574204944000000000000000000000000000000600082015250565b60006151dd6011836142ed565b91506151e8826151a7565b602082019050919050565b6000602082019050818103600083015261520c816151d0565b9050919050565b7f496e76616c6964206f7574636f6d6520696e6465780000000000000000000000600082015250565b60006152496015836142ed565b915061525482615213565b602082019050919050565b600060208201905081810360008301526152788161523c565b9050919050565b7f4d61726b6574206973206e6f7420616374697665000000000000000000000000600082015250565b60006152b56014836142ed565b91506152c08261527f565b602082019050919050565b600060208201905081810360008301526152e4816152a8565b9050919050565b60006152f682613c9a565b915061530183613c9a565b925082820390506fffffffffffffffffffffffffffffffff811115615329576153286147cf565b5b92915050565b600061533a82613c9a565b915061534583613c9a565b925082820261535381613c9a565b9150808214615365576153646147cf565b5b5092915050565b600061537782613c9a565b915061538283613c9a565b92508261539257615391614874565b5b828204905092915050565b60006153a882613be1565b915063ffffffff82036153be576153bd6147cf565b5b600182019050919050565b7f4d7573742068617665206e6f6e2d7a65726f2062616c616e6365730000000000600082015250565b60006153ff601b836142ed565b915061540a826153c9565b602082019050919050565b6000602082019050818103600083015261542e816153f2565b9050919050565b600061544082613c9a565b915061544b83613c9a565b925082820190506fffffffffffffffffffffffffffffffff811115615473576154726147cf565b5b92915050565b7f4f6e6c79206f776e65722063616e2075706461746520646561646c696e650000600082015250565b60006154af601e836142ed565b91506154ba82615479565b602082019050919050565b600060208201905081810360008301526154de816154a2565b9050919050565b7f4f6e6c79206f776e65722063616e2064697361626c65206d61726b6574000000600082015250565b600061551b601d836142ed565b9150615526826154e5565b602082019050919050565b6000602082019050818103600083015261554a8161550e565b9050919050565b7f4d61726b657420697320616c72656164792064697361626c6564000000000000600082015250565b6000615587601a836142ed565b915061559282615551565b602082019050919050565b600060208201905081810360008301526155b68161557a565b9050919050565b7f4d61726b6574206973206e6f7420736574746c65640000000000000000000000600082015250565b60006155f36015836142ed565b91506155fe826155bd565b602082019050919050565b60006020820190508181036000830152615622816155e6565b9050919050565b7f4f7574636f6d65206973206e6f7420612077696e6e6572000000000000000000600082015250565b600061565f6017836142ed565b915061566a82615629565b602082019050919050565b6000602082019050818103600083015261568e81615652565b9050919050565b7f4e6f2062616c616e636520746f20636c61696d00000000000000000000000000600082015250565b60006156cb6013836142ed565b91506156d682615695565b602082019050919050565b600060208201905081810360008301526156fa816156be565b9050919050565b600061570c82613be1565b915061571783613be1565b9250828203905063ffffffff811115615733576157326147cf565b5b92915050565b600081905092915050565b50565b6000615754600083615739565b915061575f82615744565b600082019050919050565b600061577582615747565b9150819050919050565b7f5472616e73666572206661696c65640000000000000000000000000000000000600082015250565b60006157b5600f836142ed565b91506157c08261577f565b602082019050919050565b600060208201905081810360008301526157e4816157a8565b9050919050565b60006157f682613bab565b91507fffffffffffffffffffffffffffffffffffffffffffffffffffffffffffffffff8203615828576158276147cf565b5b600182019050919050565b7f496e766573746d656e74206d75737420626520706f7369746976650000000000600082015250565b6000615869601b836142ed565b915061587482615833565b602082019050919050565b600060208201905081810360008301526158988161585c565b9050919050565b7f526563656976696e67206c657373207468616e20657870656374656400000000600082015250565b60006158d5601c836142ed565b91506158e08261589f565b602082019050919050565b60006020820190508181036000830152615904816158c8565b9050919050565b7f46756e6473206d75737420626520706f73697469766500000000000000000000600082015250565b60006159416016836142ed565b915061594c8261590b565b602082019050919050565b6000602082019050818103600083015261597081615934565b9050919050565b7f43616e6e6f742072656d6f7665206d6f7265207468616e20706f6f6c00000000600082015250565b60006159ad601c836142ed565b91506159b882615977565b602082019050919050565b600060208201905081810360008301526159dc816159a0565b9050919050565b7f496e73756666696369656e742066756e64730000000000000000000000000000600082015250565b6000615a196012836142ed565b9150615a24826159e3565b602082019050919050565b60006020820190508181036000830152615a4881615a0c565b9050919050565b7f52657175697265206e6f6e2d7a65726f2062616c616e63657300000000000000600082015250565b6000615a856019836142ed565b9150615a9082615a4f565b602082019050919050565b60006020820190508181036000830152615ab481615a78565b9050919050565b7f496e73756666696369656e7420636f6e74726163742062616c616e6365000000600082015250565b6000615af1601d836142ed565b9150615afc82615abb565b602082019050919050565b60006020820190508181036000830152615b2081615ae4565b9050919050565b6000604082019050615b3c6000830185614934565b615b496020830184613c70565b9392505050565b60008160011c9050919050565b6000808291508390505b6001851115615ba757808604811115615b8357615b826147cf565b5b6001851615615b925780820291505b8081029050615ba085615b50565b9450615b67565b94509492505050565b600082615bc05760019050615c7c565b81615bce5760009050615c7c565b8160018114615be45760028114615bee57615c1d565b6001915050615c7c565b60ff841115615c0057615bff6147cf565b5b8360020a915084821115615c1757615c166147cf565b5b50615c7c565b5060208310610133831016604e8410600b8410161715615c525782820a905083811115615c4d57615c4c6147cf565b5b615c7c565b615c5f8484846001615b5d565b92509050818404811115615c7657615c756147cf565b5b81810290505b9392505050565b6000615c8e82613bab565b9150615c9983613bab565b9250615cc67fffffffffffffffffffffffffffffffffffffffffffffffffffffffffffffffff8484615bb0565b905092915050565b7f4f6e6c79206f776e65722063616e207365742074726561737572657200000000600082015250565b6000615d04601c836142ed565b9150615d0f82615cce565b602082019050919050565b60006020820190508181036000830152615d3381615cf7565b905091905056fea2646970667358221220f5a676a71d9c6b1a0068d89e90810bbc3ceafa7fcfd7750f2538d5dd7f24b9aa64736f6c634300081a0033",
  "linkReferences": {},
  "deployedLinkReferences": {}
}