{
  "_format": "hh-sol-artifact-1",
  "contractName": "FPMMMarket",
  "sourceName": "contracts/FPMM_contracts/FPMM_market.sol",
  "abi": [
    {
      "inputs": [
        {
          "internalType": "contract IERC20",
          "name": "_collateralToken",
          "type": "address"
        },
        {
          "internalType": "uint32",
          "name": "_fee",
          "type": "uint32"
        },
        {
          "internalType": "address",
          "name": "_owner",
          "type": "address"
        }
      ],
      "stateMutability": "nonpayable",
      "type": "constructor"
    },
    {
      "anonymous": false,
      "inputs": [
        {
          "indexed": true,
          "internalType": "address",
          "name": "buyer",
          "type": "address"
        },
        {
          "indexed": false,
          "internalType": "uint128",
          "name": "investmentAmount",
          "type": "uint128"
        },
        {
          "indexed": false,
          "internalType": "uint32",
          "name": "outcomeIndex",
          "type": "uint32"
        },
        {
          "indexed": false,
          "internalType": "uint256",
          "name": "outcomeTokensBought",
          "type": "uint256"
        }
      ],
      "name": "FPMMBuy",
      "type": "event"
    },
    {
      "anonymous": false,
      "inputs": [
        {
          "indexed": true,
          "internalType": "address",
          "name": "funder",
          "type": "address"
        },
        {
          "indexed": false,
          "internalType": "uint256",
          "name": "amountsAdded",
          "type": "uint256"
        }
      ],
      "name": "FPMMFundingAdded",
      "type": "event"
    },
    {
      "anonymous": false,
      "inputs": [
        {
          "indexed": true,
          "internalType": "address",
          "name": "funder",
          "type": "address"
        },
        {
          "indexed": false,
          "internalType": "uint256",
          "name": "collateralRemovedFromFeePool",
          "type": "uint256"
        },
        {
          "indexed": false,
          "internalType": "uint256",
          "name": "amountsRemoved",
          "type": "uint256"
        }
      ],
      "name": "FPMMFundingRemoved",
      "type": "event"
    },
    {
      "anonymous": false,
      "inputs": [
        {
          "indexed": true,
          "internalType": "uint256",
          "name": "marketId",
          "type": "uint256"
        },
        {
          "indexed": false,
          "internalType": "string[]",
          "name": "outcomes",
          "type": "string[]"
        },
        {
          "indexed": false,
          "internalType": "uint128",
          "name": "deadline",
          "type": "uint128"
        }
      ],
      "name": "FPMMMarketInit",
      "type": "event"
    },
    {
      "anonymous": false,
      "inputs": [
        {
          "indexed": true,
          "internalType": "address",
          "name": "seller",
          "type": "address"
        },
        {
          "indexed": false,
          "internalType": "uint128",
          "name": "returnAmount",
          "type": "uint128"
        },
        {
          "indexed": false,
          "internalType": "uint32",
          "name": "outcomeIndex",
          "type": "uint32"
        },
        {
          "indexed": false,
          "internalType": "uint256",
          "name": "outcomeTokensSold",
          "type": "uint256"
        }
      ],
      "name": "FPMMSell",
      "type": "event"
    },
    {
      "inputs": [
        {
          "internalType": "uint128",
          "name": "addedFunds",
          "type": "uint128"
        }
      ],
      "name": "addFunding",
      "outputs": [],
      "stateMutability": "nonpayable",
      "type": "function"
    },
    {
      "inputs": [
        {
          "internalType": "uint256",
          "name": "",
          "type": "uint256"
        },
        {
          "internalType": "address",
          "name": "",
          "type": "address"
        },
        {
          "internalType": "uint32",
          "name": "",
          "type": "uint32"
        }
      ],
      "name": "balances",
      "outputs": [
        {
          "internalType": "uint256",
          "name": "",
          "type": "uint256"
        }
      ],
      "stateMutability": "view",
      "type": "function"
    },
    {
      "inputs": [
        {
          "internalType": "uint256",
          "name": "marketId",
          "type": "uint256"
        },
        {
          "internalType": "uint128",
          "name": "investmentAmount",
          "type": "uint128"
        },
        {
          "internalType": "uint32",
          "name": "outcomeIndex",
          "type": "uint32"
        },
        {
          "internalType": "uint128",
          "name": "minOutcomeTokensToBuy",
          "type": "uint128"
        }
      ],
      "name": "buy",
      "outputs": [],
      "stateMutability": "nonpayable",
      "type": "function"
    },
    {
      "inputs": [
        {
          "internalType": "uint256",
          "name": "marketId",
          "type": "uint256"
        },
        {
          "internalType": "uint128",
          "name": "investmentAmount",
          "type": "uint128"
        },
        {
          "internalType": "uint32",
          "name": "outcomeIndex",
          "type": "uint32"
        }
      ],
      "name": "calcBuyAmount",
      "outputs": [
        {
          "internalType": "uint128",
          "name": "",
          "type": "uint128"
        }
      ],
      "stateMutability": "view",
      "type": "function"
    },
    {
      "inputs": [
        {
          "internalType": "uint256",
          "name": "marketId",
          "type": "uint256"
        },
        {
          "internalType": "uint128",
          "name": "returnAmount",
          "type": "uint128"
        },
        {
          "internalType": "uint32",
          "name": "outcomeIndex",
          "type": "uint32"
        }
      ],
      "name": "calcSellAmount",
      "outputs": [
        {
          "internalType": "uint128",
          "name": "",
          "type": "uint128"
        }
      ],
      "stateMutability": "view",
      "type": "function"
    },
    {
      "inputs": [
        {
          "internalType": "uint256",
          "name": "marketId",
          "type": "uint256"
        },
        {
          "internalType": "uint32",
          "name": "outcomeIndex",
          "type": "uint32"
        }
      ],
      "name": "claimWinnings",
      "outputs": [],
      "stateMutability": "nonpayable",
      "type": "function"
    },
    {
      "inputs": [],
      "name": "collateralToken",
      "outputs": [
        {
          "internalType": "contract IERC20",
          "name": "",
          "type": "address"
        }
      ],
      "stateMutability": "view",
      "type": "function"
    },
    {
      "inputs": [],
      "name": "currentLiquidity",
      "outputs": [
        {
          "internalType": "uint128",
          "name": "",
          "type": "uint128"
        }
      ],
      "stateMutability": "view",
      "type": "function"
    },
    {
      "inputs": [
        {
          "internalType": "uint256",
          "name": "marketId",
          "type": "uint256"
        }
      ],
      "name": "disableMarket",
      "outputs": [],
      "stateMutability": "nonpayable",
      "type": "function"
    },
    {
      "inputs": [],
      "name": "fee",
      "outputs": [
        {
          "internalType": "uint32",
          "name": "",
          "type": "uint32"
        }
      ],
      "stateMutability": "view",
      "type": "function"
    },
    {
      "inputs": [],
      "name": "feesAccrued",
      "outputs": [
        {
          "internalType": "uint256",
          "name": "",
          "type": "uint256"
        }
      ],
      "stateMutability": "view",
      "type": "function"
    },
    {
      "inputs": [
        {
          "internalType": "address",
          "name": "account",
          "type": "address"
        }
      ],
      "name": "feesWithdrawableBy",
      "outputs": [
        {
          "internalType": "uint256",
          "name": "",
          "type": "uint256"
        }
      ],
      "stateMutability": "view",
      "type": "function"
    },
    {
      "inputs": [],
      "name": "getCollateralToken",
      "outputs": [
        {
          "internalType": "address",
          "name": "",
          "type": "address"
        }
      ],
      "stateMutability": "view",
      "type": "function"
    },
    {
      "inputs": [],
      "name": "getFee",
      "outputs": [
        {
          "internalType": "uint32",
          "name": "",
          "type": "uint32"
        }
      ],
      "stateMutability": "view",
      "type": "function"
    },
    {
      "inputs": [
        {
          "internalType": "uint256",
          "name": "marketId",
          "type": "uint256"
        }
      ],
      "name": "getMarket",
      "outputs": [
        {
          "components": [
            {
              "internalType": "uint32",
              "name": "numOutcomes",
              "type": "uint32"
            },
            {
              "internalType": "uint128",
              "name": "deadline",
              "type": "uint128"
            },
            {
              "internalType": "bool",
              "name": "isActive",
              "type": "bool"
            },
            {
              "internalType": "bool",
              "name": "isSettled",
              "type": "bool"
            }
          ],
          "internalType": "struct FPMMStructs.FPMMMarket",
          "name": "",
          "type": "tuple"
        }
      ],
      "stateMutability": "view",
      "type": "function"
    },
    {
      "inputs": [],
      "name": "getNumMarkets",
      "outputs": [
        {
          "internalType": "uint256",
          "name": "",
          "type": "uint256"
        }
      ],
      "stateMutability": "view",
      "type": "function"
    },
    {
      "inputs": [
        {
          "internalType": "uint256",
          "name": "marketId",
          "type": "uint256"
        },
        {
          "internalType": "uint32",
          "name": "outcomeIndex",
          "type": "uint32"
        }
      ],
      "name": "getOutcome",
      "outputs": [
        {
          "components": [
            {
              "internalType": "string",
              "name": "name",
              "type": "string"
            },
            {
              "internalType": "uint128",
              "name": "numSharesInPool",
              "type": "uint128"
            },
            {
              "internalType": "bool",
              "name": "winner",
              "type": "bool"
            }
          ],
          "internalType": "struct FPMMStructs.Outcome",
          "name": "",
          "type": "tuple"
        }
      ],
      "stateMutability": "view",
      "type": "function"
    },
    {
      "inputs": [],
      "name": "getTreasury",
      "outputs": [
        {
          "internalType": "address",
          "name": "",
          "type": "address"
        }
      ],
      "stateMutability": "view",
      "type": "function"
    },
    {
      "inputs": [
        {
          "internalType": "address",
          "name": "user",
          "type": "address"
        }
      ],
      "name": "getUserBalance",
      "outputs": [
        {
          "internalType": "uint256",
          "name": "",
          "type": "uint256"
        }
      ],
      "stateMutability": "view",
      "type": "function"
    },
    {
      "inputs": [
        {
          "internalType": "address",
          "name": "user",
          "type": "address"
        },
        {
          "internalType": "uint256",
          "name": "marketId",
          "type": "uint256"
        },
        {
          "internalType": "uint32",
          "name": "outcomeIndex",
          "type": "uint32"
        }
      ],
      "name": "getUserMarketShare",
      "outputs": [
        {
          "internalType": "uint256",
          "name": "",
          "type": "uint256"
        }
      ],
      "stateMutability": "view",
      "type": "function"
    },
    {
      "inputs": [
        {
          "internalType": "string[]",
          "name": "outcomeNames",
          "type": "string[]"
        },
        {
          "internalType": "uint128",
          "name": "deadline",
          "type": "uint128"
        }
      ],
      "name": "initMarket",
      "outputs": [],
      "stateMutability": "nonpayable",
      "type": "function"
    },
    {
      "inputs": [
        {
          "internalType": "address",
          "name": "",
          "type": "address"
        }
      ],
      "name": "liquidityBalance",
      "outputs": [
        {
          "internalType": "uint256",
          "name": "",
          "type": "uint256"
        }
      ],
      "stateMutability": "view",
      "type": "function"
    },
    {
      "inputs": [],
      "name": "liquidityPool",
      "outputs": [
        {
          "internalType": "uint128",
          "name": "",
          "type": "uint128"
        }
      ],
      "stateMutability": "view",
      "type": "function"
    },
    {
      "inputs": [
        {
          "internalType": "uint256",
          "name": "",
          "type": "uint256"
        }
      ],
      "name": "markets",
      "outputs": [
        {
          "internalType": "uint32",
          "name": "numOutcomes",
          "type": "uint32"
        },
        {
          "internalType": "uint128",
          "name": "deadline",
          "type": "uint128"
        },
        {
          "internalType": "bool",
          "name": "isActive",
          "type": "bool"
        },
        {
          "internalType": "bool",
          "name": "isSettled",
          "type": "bool"
        }
      ],
      "stateMutability": "view",
      "type": "function"
    },
    {
      "inputs": [],
      "name": "numMarkets",
      "outputs": [
        {
          "internalType": "uint256",
          "name": "",
          "type": "uint256"
        }
      ],
      "stateMutability": "view",
      "type": "function"
    },
    {
      "inputs": [
        {
          "internalType": "uint256",
          "name": "",
          "type": "uint256"
        },
        {
          "internalType": "uint32",
          "name": "",
          "type": "uint32"
        }
      ],
      "name": "outcomes",
      "outputs": [
        {
          "internalType": "string",
          "name": "name",
          "type": "string"
        },
        {
          "internalType": "uint128",
          "name": "numSharesInPool",
          "type": "uint128"
        },
        {
          "internalType": "bool",
          "name": "winner",
          "type": "bool"
        }
      ],
      "stateMutability": "view",
      "type": "function"
    },
    {
      "inputs": [],
      "name": "owner",
      "outputs": [
        {
          "internalType": "address",
          "name": "",
          "type": "address"
        }
      ],
      "stateMutability": "view",
      "type": "function"
    },
    {
      "inputs": [
        {
          "internalType": "uint128",
          "name": "fundsToRemove",
          "type": "uint128"
        }
      ],
      "name": "removeFunding",
      "outputs": [],
      "stateMutability": "nonpayable",
      "type": "function"
    },
    {
      "inputs": [
        {
          "internalType": "uint256",
          "name": "marketId",
          "type": "uint256"
        },
        {
          "internalType": "uint128",
          "name": "returnAmount",
          "type": "uint128"
        },
        {
          "internalType": "uint32",
          "name": "outcomeIndex",
          "type": "uint32"
        },
        {
          "internalType": "uint128",
          "name": "maxOutcomeTokensToSell",
          "type": "uint128"
        }
      ],
      "name": "sell",
      "outputs": [],
      "stateMutability": "nonpayable",
      "type": "function"
    },
    {
      "inputs": [
        {
          "internalType": "uint32",
          "name": "_fee",
          "type": "uint32"
        }
      ],
      "name": "setFee",
      "outputs": [],
      "stateMutability": "nonpayable",
      "type": "function"
    },
    {
      "inputs": [
        {
          "internalType": "uint256",
          "name": "marketId",
          "type": "uint256"
        },
        {
          "internalType": "uint32",
          "name": "outcomeIndex",
          "type": "uint32"
        }
      ],
      "name": "setMarketWinner",
      "outputs": [],
      "stateMutability": "nonpayable",
      "type": "function"
    },
    {
      "inputs": [
        {
          "internalType": "uint32",
          "name": "_fee",
          "type": "uint32"
        }
      ],
      "name": "setTreasurerFee",
      "outputs": [],
      "stateMutability": "nonpayable",
      "type": "function"
    },
    {
      "inputs": [
        {
          "internalType": "address",
          "name": "treasurer",
          "type": "address"
        }
      ],
      "name": "setTreasury",
      "outputs": [],
      "stateMutability": "nonpayable",
      "type": "function"
    },
    {
      "inputs": [
        {
          "internalType": "uint256",
          "name": "marketId",
          "type": "uint256"
        },
        {
          "internalType": "uint32",
          "name": "outcomeIndex",
          "type": "uint32"
        }
      ],
      "name": "setWinner",
      "outputs": [],
      "stateMutability": "nonpayable",
      "type": "function"
    },
    {
      "inputs": [],
      "name": "treasuryFee",
      "outputs": [
        {
          "internalType": "uint32",
          "name": "",
          "type": "uint32"
        }
      ],
      "stateMutability": "view",
      "type": "function"
    },
    {
      "inputs": [],
      "name": "treasuryWallet",
      "outputs": [
        {
          "internalType": "address",
          "name": "",
          "type": "address"
        }
      ],
      "stateMutability": "view",
      "type": "function"
    },
    {
      "inputs": [
        {
          "internalType": "uint256",
          "name": "marketId",
          "type": "uint256"
        },
        {
          "internalType": "uint128",
          "name": "deadline",
          "type": "uint128"
        }
      ],
      "name": "updateDeadline",
      "outputs": [],
      "stateMutability": "nonpayable",
      "type": "function"
    }
  ],
  "bytecode": "0x608060405234801561001057600080fd5b50604051615bea380380615bea833981810160405281019061003291906101b9565b826000806101000a81548173ffffffffffffffffffffffffffffffffffffffff021916908373ffffffffffffffffffffffffffffffffffffffff16021790555081600260006101000a81548163ffffffff021916908363ffffffff16021790555080600460006101000a81548173ffffffffffffffffffffffffffffffffffffffff021916908373ffffffffffffffffffffffffffffffffffffffff16021790555050505061020c565b600080fd5b600073ffffffffffffffffffffffffffffffffffffffff82169050919050565b600061010c826100e1565b9050919050565b600061011e82610101565b9050919050565b61012e81610113565b811461013957600080fd5b50565b60008151905061014b81610125565b92915050565b600063ffffffff82169050919050565b61016a81610151565b811461017557600080fd5b50565b60008151905061018781610161565b92915050565b61019681610101565b81146101a157600080fd5b50565b6000815190506101b38161018d565b92915050565b6000806000606084860312156101d2576101d16100dc565b5b60006101e08682870161013c565b93505060206101f186828701610178565b9250506040610202868287016101a4565b9150509250925092565b6159cf8061021b6000396000f3fe608060405234801561001057600080fd5b50600436106102275760003560e01c80635dc48d8e11610130578063c392b9a6116100b8578063dfef00941161007c578063dfef009414610693578063eb44fdd3146106af578063f0f44260146106df578063f244244f146106fb578063fe291bf01461071757610227565b8063c392b9a6146105d9578063cc32d17614610609578063ced72f8714610627578063dd29648014610645578063ddca3f431461067557610227565b806394db0595116100ff57806394db05951461051a57806396423663146105385780639ecabe9714610556578063b1283e7714610588578063b2016bd4146105bb57610227565b80635dc48d8e146104a6578063665a11ca146104c2578063794da9cc146104e05780638da5cb5b146104fc57610227565b806335a0ca93116101b3578063477348921161018257806347734892146103f25780634ac4e727146104225780634be71eb1146104525780634f5fa3f71461046e578063565c17141461048a57610227565b806335a0ca931461037c5780633b19e84a146103985780634626402b146103b657806346caf2ae146103d457610227565b806326e04f9d116101fa57806326e04f9d146102c4578063295c39a5146102e25780632b38fe62146103005780632c381775146103305780633064c8b01461034c57610227565b806306ba86181461022c5780630f2539e01461025c57806316dbd776146102785780631ab971ab146102a8575b600080fd5b61024660048036038101906102419190613b73565b610733565b6040516102539190613bd5565b60405180910390f35b61027660048036038101906102719190613c38565b6107ac565b005b610292600480360381019061028d9190613c9f565b610b5c565b60405161029f9190613bd5565b60405180910390f35b6102c260048036038101906102bd9190613ccc565b610c3c565b005b6102cc610cf0565b6040516102d99190613bd5565b60405180910390f35b6102ea610cf6565b6040516102f79190613bd5565b60405180910390f35b61031a60048036038101906103159190613cf9565b610d00565b6040516103279190613e43565b60405180910390f35b61034a60048036038101906103459190614080565b610e42565b005b610366600480360381019061036191906140dc565b611239565b6040516103739190613bd5565b60405180910390f35b61039660048036038101906103919190613cf9565b61126b565b005b6103a061143c565b6040516103ad919061413e565b60405180910390f35b6103be6114f6565b6040516103cb919061413e565b60405180910390f35b6103dc61151c565b6040516103e99190614168565b60405180910390f35b61040c60048036038101906104079190613c9f565b611542565b6040516104199190613bd5565b60405180910390f35b61043c60048036038101906104379190614183565b61158b565b6040516104499190614168565b60405180910390f35b61046c600480360381019061046791906141d6565b6118ee565b005b61048860048036038101906104839190614203565b611b3e565b005b6104a4600480360381019061049f9190614243565b611d1c565b005b6104c060048036038101906104bb9190613ccc565b611e35565b005b6104ca611ee9565b6040516104d79190614168565b60405180910390f35b6104fa60048036038101906104f59190613cf9565b611f0b565b005b61050461232d565b604051610511919061413e565b60405180910390f35b610522612353565b60405161052f9190613bd5565b60405180910390f35b610540612359565b60405161054d919061413e565b60405180910390f35b610570600480360381019061056b9190613cf9565b612382565b60405161057f939291906142c9565b60405180910390f35b6105a2600480360381019061059d9190614243565b61246a565b6040516105b29493929190614316565b60405180910390f35b6105c36124e0565b6040516105d091906143ba565b60405180910390f35b6105f360048036038101906105ee9190614183565b612504565b6040516106009190614168565b60405180910390f35b6106116128a7565b60405161061e91906143d5565b60405180910390f35b61062f6128bd565b60405161063c91906143d5565b60405180910390f35b61065f600480360381019061065a9190613c9f565b6128d7565b60405161066c9190613bd5565b60405180910390f35b61067d6128ef565b60405161068a91906143d5565b60405180910390f35b6106ad60048036038101906106a891906141d6565b612905565b005b6106c960048036038101906106c49190614243565b612d38565b6040516106d69190614454565b60405180910390f35b6106f960048036038101906106f49190613c9f565b612e0b565b005b61071560048036038101906107109190613cf9565b612edf565b005b610731600480360381019061072c9190613c38565b613107565b005b60006008600084815260200190815260200160002060008573ffffffffffffffffffffffffffffffffffffffff1673ffffffffffffffffffffffffffffffffffffffff16815260200190815260200160002060008363ffffffff1663ffffffff1681526020019081526020016000205490509392505050565b60006107b985858561158b565b9050816fffffffffffffffffffffffffffffffff16816fffffffffffffffffffffffffffffffff161115610822576040517f08c379a0000000000000000000000000000000000000000000000000000000008152600401610819906144bb565b60405180910390fd5b6008600086815260200190815260200160002060003373ffffffffffffffffffffffffffffffffffffffff1673ffffffffffffffffffffffffffffffffffffffff16815260200190815260200160002060008463ffffffff1663ffffffff16815260200190815260200160002054816fffffffffffffffffffffffffffffffff1611156108e4576040517f08c379a00000000000000000000000000000000000000000000000000000000081526004016108db90614527565b60405180910390fd5b806fffffffffffffffffffffffffffffffff166008600087815260200190815260200160002060003373ffffffffffffffffffffffffffffffffffffffff1673ffffffffffffffffffffffffffffffffffffffff16815260200190815260200160002060008563ffffffff1663ffffffff16815260200190815260200160002060008282546109739190614576565b925050819055506064600260009054906101000a900463ffffffff1663ffffffff16856109a091906145aa565b6109aa9190614616565b6fffffffffffffffffffffffffffffffff16600360008282546109cd9190614647565b9250508190555060006064600260009054906101000a900463ffffffff1663ffffffff16866109fc91906145aa565b610a069190614616565b85610a11919061467b565b9050610a256006600988848887600061355f565b60008054906101000a900473ffffffffffffffffffffffffffffffffffffffff1673ffffffffffffffffffffffffffffffffffffffff1663a9059cbb33876040518363ffffffff1660e01b8152600401610a809291906146f0565b6020604051808303816000875af1158015610a9f573d6000803e3d6000fd5b505050506040513d601f19601f82011682018060405250810190610ac39190614745565b610b02576040517f08c379a0000000000000000000000000000000000000000000000000000000008152600401610af9906147be565b60405180910390fd5b3373ffffffffffffffffffffffffffffffffffffffff167fd119a55f8addb8a2ff33c692b1d13c26a766c3f16aee9126a733534d47aa81c2868685604051610b4c939291906147de565b60405180910390a2505050505050565b600080600260049054906101000a90046fffffffffffffffffffffffffffffffff166fffffffffffffffffffffffffffffffff16600760008573ffffffffffffffffffffffffffffffffffffffff1673ffffffffffffffffffffffffffffffffffffffff16815260200190815260200160002054600354610bdd9190614815565b610be79190614857565b9050600760008473ffffffffffffffffffffffffffffffffffffffff1673ffffffffffffffffffffffffffffffffffffffff1681526020019081526020016000205481610c349190614647565b915050919050565b600460009054906101000a900473ffffffffffffffffffffffffffffffffffffffff1673ffffffffffffffffffffffffffffffffffffffff163373ffffffffffffffffffffffffffffffffffffffff1614610ccc576040517f08c379a0000000000000000000000000000000000000000000000000000000008152600401610cc3906148d4565b60405180910390fd5b80600260006101000a81548163ffffffff021916908363ffffffff16021790555050565b60015481565b6000600154905090565b610d08613a16565b6009600084815260200190815260200160002060008363ffffffff1663ffffffff168152602001908152602001600020604051806060016040529081600082018054610d5390614923565b80601f0160208091040260200160405190810160405280929190818152602001828054610d7f90614923565b8015610dcc5780601f10610da157610100808354040283529160200191610dcc565b820191906000526020600020905b815481529060010190602001808311610daf57829003601f168201915b505050505081526020016001820160009054906101000a90046fffffffffffffffffffffffffffffffff166fffffffffffffffffffffffffffffffff166fffffffffffffffffffffffffffffffff1681526020016001820160109054906101000a900460ff161515151581525050905092915050565b6000825111610e86576040517f08c379a0000000000000000000000000000000000000000000000000000000008152600401610e7d906149a0565b60405180910390fd5b61010082511115610ecc576040517f08c379a0000000000000000000000000000000000000000000000000000000008152600401610ec390614a0c565b60405180910390fd5b42816fffffffffffffffffffffffffffffffff1611610f20576040517f08c379a0000000000000000000000000000000000000000000000000000000008152600401610f1790614a78565b60405180910390fd5b6000600260049054906101000a90046fffffffffffffffffffffffffffffffff166fffffffffffffffffffffffffffffffff16905060008111610f98576040517f08c379a0000000000000000000000000000000000000000000000000000000008152600401610f8f90614ae4565b60405180910390fd5b600060018054610fa89190614647565b905080600181905550600084519050600060405180608001604052808363ffffffff168152602001866fffffffffffffffffffffffffffffffff168152602001600115158152602001600015158152509050806006600085815260200190815260200160002060008201518160000160006101000a81548163ffffffff021916908363ffffffff16021790555060208201518160000160046101000a8154816fffffffffffffffffffffffffffffffff02191690836fffffffffffffffffffffffffffffffff16021790555060408201518160000160146101000a81548160ff02191690831515021790555060608201518160000160156101000a81548160ff02191690831515021790555090505060008263ffffffff16600a866110cd9190614857565b6110d79190614857565b905060005b8363ffffffff168163ffffffff1610156111f5576040518060600160405280898363ffffffff168151811061111457611113614b04565b5b60200260200101518152602001836fffffffffffffffffffffffffffffffff168152602001600015158152506009600087815260200190815260200160002060008363ffffffff1663ffffffff16815260200190815260200160002060008201518160000190816111859190614cd5565b5060208201518160010160006101000a8154816fffffffffffffffffffffffffffffffff02191690836fffffffffffffffffffffffffffffffff16021790555060408201518160010160106101000a81548160ff02191690831515021790555090505080806001019150506110dc565b50837f413a0255d79470114fc16c403c7e791ea572bf8776a21aea08820e65201936f28888604051611228929190614e69565b60405180910390a250505050505050565b600860205282600052604060002060205281600052604060002060205280600052604060002060009250925050505481565b600460009054906101000a900473ffffffffffffffffffffffffffffffffffffffff1673ffffffffffffffffffffffffffffffffffffffff163373ffffffffffffffffffffffffffffffffffffffff16146112fb576040517f08c379a00000000000000000000000000000000000000000000000000000000081526004016112f290614ee5565b60405180910390fd5b60006006600084815260200190815260200160002090508060000160159054906101000a900460ff1615611364576040517f08c379a000000000000000000000000000000000000000000000000000000000815260040161135b90614f51565b60405180910390fd5b60005b8160000160009054906101000a900463ffffffff1663ffffffff168163ffffffff1610156113fc578263ffffffff168163ffffffff16036113ef5760016009600086815260200190815260200160002060008363ffffffff1663ffffffff16815260200190815260200160002060010160106101000a81548160ff0219169083151502179055505b8080600101915050611367565b5060008160000160146101000a81548160ff02191690831515021790555060018160000160156101000a81548160ff021916908315150217905550505050565b6000600460009054906101000a900473ffffffffffffffffffffffffffffffffffffffff1673ffffffffffffffffffffffffffffffffffffffff163373ffffffffffffffffffffffffffffffffffffffff16146114ce576040517f08c379a00000000000000000000000000000000000000000000000000000000081526004016114c590614fbd565b60405180910390fd5b600560009054906101000a900473ffffffffffffffffffffffffffffffffffffffff16905090565b600560009054906101000a900473ffffffffffffffffffffffffffffffffffffffff1681565b6000600260049054906101000a90046fffffffffffffffffffffffffffffffff16905090565b6000600760008373ffffffffffffffffffffffffffffffffffffffff1673ffffffffffffffffffffffffffffffffffffffff168152602001908152602001600020549050919050565b600080836fffffffffffffffffffffffffffffffff16116115e1576040517f08c379a00000000000000000000000000000000000000000000000000000000081526004016115d890615029565b60405180910390fd5b600154841115611626576040517f08c379a000000000000000000000000000000000000000000000000000000000815260040161161d90615095565b60405180910390fd5b60006006600086815260200190815260200160002090508060000160009054906101000a900463ffffffff1663ffffffff168363ffffffff161061169f576040517f08c379a000000000000000000000000000000000000000000000000000000000815260040161169690615101565b60405180910390fd5b8060000160149054906101000a900460ff166116f0576040517f08c379a00000000000000000000000000000000000000000000000000000000081526004016116e79061516d565b60405180910390fd5b8060000160159054906101000a900460ff1615611742576040517f08c379a000000000000000000000000000000000000000000000000000000000815260040161173990614f51565b60405180910390fd5b60006117516006600988613825565b905060006064600260009054906101000a900463ffffffff1663ffffffff168761177b91906145aa565b6117859190614616565b86611790919061467b565b90506000828663ffffffff16815181106117ad576117ac614b04565b5b6020026020010151905060005b83518163ffffffff161015611854578663ffffffff168163ffffffff16146118415782848263ffffffff16815181106117f6576117f5614b04565b5b6020026020010151611808919061467b565b848263ffffffff168151811061182157611820614b04565b5b60200260200101518361183491906145aa565b61183e9190614616565b91505b808061184c9061518d565b9150506117ba565b506000816fffffffffffffffffffffffffffffffff16116118aa576040517f08c379a00000000000000000000000000000000000000000000000000000000081526004016118a190615205565b60405180910390fd5b828663ffffffff16815181106118c3576118c2614b04565b5b602002602001015181836118d79190615225565b6118e1919061467b565b9450505050509392505050565b6000816fffffffffffffffffffffffffffffffff1611611943576040517f08c379a000000000000000000000000000000000000000000000000000000000815260040161193a906152b5565b60405180910390fd5b60008054906101000a900473ffffffffffffffffffffffffffffffffffffffff1673ffffffffffffffffffffffffffffffffffffffff166323b872dd3330846040518463ffffffff1660e01b81526004016119a0939291906152d5565b6020604051808303816000875af11580156119bf573d6000803e3d6000fd5b505050506040513d601f19601f820116820180604052508101906119e39190614745565b611a22576040517f08c379a0000000000000000000000000000000000000000000000000000000008152600401611a19906147be565b60405180910390fd5b806fffffffffffffffffffffffffffffffff16600760003373ffffffffffffffffffffffffffffffffffffffff1673ffffffffffffffffffffffffffffffffffffffff1681526020019081526020016000206000828254611a839190614647565b9250508190555080600260048282829054906101000a90046fffffffffffffffffffffffffffffffff16611ab79190615225565b92506101000a8154816fffffffffffffffffffffffffffffffff02191690836fffffffffffffffffffffffffffffffff1602179055503373ffffffffffffffffffffffffffffffffffffffff167f7ebb51c69763e72edc59161ffe7e6c51ab52010637c6d4e8ca433f5b43c876cb82604051611b33919061530c565b60405180910390a250565b600460009054906101000a900473ffffffffffffffffffffffffffffffffffffffff1673ffffffffffffffffffffffffffffffffffffffff163373ffffffffffffffffffffffffffffffffffffffff1614611bce576040517f08c379a0000000000000000000000000000000000000000000000000000000008152600401611bc590615373565b60405180910390fd5b60006006600084815260200190815260200160002090508060000160149054906101000a900460ff16611c36576040517f08c379a0000000000000000000000000000000000000000000000000000000008152600401611c2d9061516d565b60405180910390fd5b8060000160159054906101000a900460ff1615611c88576040517f08c379a0000000000000000000000000000000000000000000000000000000008152600401611c7f90614f51565b60405180910390fd5b42826fffffffffffffffffffffffffffffffff1611611cdc576040517f08c379a0000000000000000000000000000000000000000000000000000000008152600401611cd390614a78565b60405180910390fd5b818160000160046101000a8154816fffffffffffffffffffffffffffffffff02191690836fffffffffffffffffffffffffffffffff160217905550505050565b600460009054906101000a900473ffffffffffffffffffffffffffffffffffffffff1673ffffffffffffffffffffffffffffffffffffffff163373ffffffffffffffffffffffffffffffffffffffff1614611dac576040517f08c379a0000000000000000000000000000000000000000000000000000000008152600401611da3906153df565b60405180910390fd5b60006006600083815260200190815260200160002090508060000160149054906101000a900460ff16611e14576040517f08c379a0000000000000000000000000000000000000000000000000000000008152600401611e0b9061544b565b60405180910390fd5b60008160000160146101000a81548160ff0219169083151502179055505050565b600460009054906101000a900473ffffffffffffffffffffffffffffffffffffffff1673ffffffffffffffffffffffffffffffffffffffff163373ffffffffffffffffffffffffffffffffffffffff1614611ec5576040517f08c379a0000000000000000000000000000000000000000000000000000000008152600401611ebc906148d4565b60405180910390fd5b80600560146101000a81548163ffffffff021916908363ffffffff16021790555050565b600260049054906101000a90046fffffffffffffffffffffffffffffffff1681565b60006006600084815260200190815260200160002090508060000160159054906101000a900460ff16611f73576040517f08c379a0000000000000000000000000000000000000000000000000000000008152600401611f6a906154b7565b60405180910390fd5b60006009600085815260200190815260200160002060008463ffffffff1663ffffffff16815260200190815260200160002090508060010160109054906101000a900460ff16611ff8576040517f08c379a0000000000000000000000000000000000000000000000000000000008152600401611fef90615523565b60405180910390fd5b60006008600086815260200190815260200160002060003373ffffffffffffffffffffffffffffffffffffffff1673ffffffffffffffffffffffffffffffffffffffff16815260200190815260200160002060008563ffffffff1663ffffffff168152602001908152602001600020549050600081116120ad576040517f08c379a00000000000000000000000000000000000000000000000000000000081526004016120a49061558f565b60405180910390fd5b60006064600260009054906101000a900463ffffffff1660646120d091906155af565b63ffffffff16836120e19190614815565b6120eb9190614857565b905060006008600088815260200190815260200160002060003373ffffffffffffffffffffffffffffffffffffffff1673ffffffffffffffffffffffffffffffffffffffff16815260200190815260200160002060008763ffffffff1663ffffffff1681526020019081526020016000208190555060008054906101000a900473ffffffffffffffffffffffffffffffffffffffff1673ffffffffffffffffffffffffffffffffffffffff1663a9059cbb3383856121a99190614576565b6040518363ffffffff1660e01b81526004016121c69291906155e7565b6020604051808303816000875af11580156121e5573d6000803e3d6000fd5b505050506040513d601f19601f820116820180604052508101906122099190614745565b612248576040517f08c379a000000000000000000000000000000000000000000000000000000000815260040161223f906147be565b60405180910390fd5b60008054906101000a900473ffffffffffffffffffffffffffffffffffffffff1673ffffffffffffffffffffffffffffffffffffffff1663a9059cbb33836040518363ffffffff1660e01b81526004016122a39291906155e7565b6020604051808303816000875af11580156122c2573d6000803e3d6000fd5b505050506040513d601f19601f820116820180604052508101906122e69190614745565b612325576040517f08c379a000000000000000000000000000000000000000000000000000000000815260040161231c906147be565b60405180910390fd5b505050505050565b600460009054906101000a900473ffffffffffffffffffffffffffffffffffffffff1681565b60035481565b60008060009054906101000a900473ffffffffffffffffffffffffffffffffffffffff16905090565b6009602052816000526040600020602052806000526040600020600091509150508060000180546123b290614923565b80601f01602080910402602001604051908101604052809291908181526020018280546123de90614923565b801561242b5780601f106124005761010080835404028352916020019161242b565b820191906000526020600020905b81548152906001019060200180831161240e57829003601f168201915b5050505050908060010160009054906101000a90046fffffffffffffffffffffffffffffffff16908060010160109054906101000a900460ff16905083565b60066020528060005260406000206000915090508060000160009054906101000a900463ffffffff16908060000160049054906101000a90046fffffffffffffffffffffffffffffffff16908060000160149054906101000a900460ff16908060000160159054906101000a900460ff16905084565b60008054906101000a900473ffffffffffffffffffffffffffffffffffffffff1681565b600080836fffffffffffffffffffffffffffffffff161161255a576040517f08c379a00000000000000000000000000000000000000000000000000000000081526004016125519061565c565b60405180910390fd5b60015484111561259f576040517f08c379a000000000000000000000000000000000000000000000000000000000815260040161259690615095565b60405180910390fd5b60006006600086815260200190815260200160002090508060000160009054906101000a900463ffffffff1663ffffffff168363ffffffff1610612618576040517f08c379a000000000000000000000000000000000000000000000000000000000815260040161260f90615101565b60405180910390fd5b8060000160149054906101000a900460ff16612669576040517f08c379a00000000000000000000000000000000000000000000000000000000081526004016126609061516d565b60405180910390fd5b8060000160159054906101000a900460ff16156126bb576040517f08c379a00000000000000000000000000000000000000000000000000000000081526004016126b290614f51565b60405180910390fd5b60006126ca6006600988613825565b905060006064600560149054906101000a900463ffffffff1663ffffffff16876126f491906145aa565b6126fe9190614616565b6064600260009054906101000a900463ffffffff1663ffffffff168861272491906145aa565b61272e9190614616565b87612739919061467b565b612743919061467b565b90506000828663ffffffff16815181106127605761275f614b04565b5b6020026020010151905060005b83518163ffffffff161015612807578663ffffffff168163ffffffff16146127f45782848263ffffffff16815181106127a9576127a8614b04565b5b60200260200101516127bb9190615225565b848263ffffffff16815181106127d4576127d3614b04565b5b6020026020010151836127e791906145aa565b6127f19190614616565b91505b80806127ff9061518d565b91505061276d565b506000816fffffffffffffffffffffffffffffffff161161285d576040517f08c379a000000000000000000000000000000000000000000000000000000000815260040161285490615205565b60405180910390fd5b60008183858963ffffffff168151811061287a57612879614b04565b5b602002602001015161288c9190615225565b612896919061467b565b905080955050505050509392505050565b600560149054906101000a900463ffffffff1681565b6000600260009054906101000a900463ffffffff16905090565b60076020528060005260406000206000915090505481565b600260009054906101000a900463ffffffff1681565b6000816fffffffffffffffffffffffffffffffff161161295a576040517f08c379a0000000000000000000000000000000000000000000000000000000008152600401612951906156c8565b60405180910390fd5b600260049054906101000a90046fffffffffffffffffffffffffffffffff166fffffffffffffffffffffffffffffffff16816fffffffffffffffffffffffffffffffff1611156129df576040517f08c379a00000000000000000000000000000000000000000000000000000000081526004016129d690615734565b60405180910390fd5b806fffffffffffffffffffffffffffffffff16600760003373ffffffffffffffffffffffffffffffffffffffff1673ffffffffffffffffffffffffffffffffffffffff168152602001908152602001600020541015612a73576040517f08c379a0000000000000000000000000000000000000000000000000000000008152600401612a6a906157a0565b60405180910390fd5b6000600260049054906101000a90046fffffffffffffffffffffffffffffffff166fffffffffffffffffffffffffffffffff16826fffffffffffffffffffffffffffffffff16600354612ac69190614815565b612ad09190614857565b90506000612add33610b5c565b905060008111612b22576040517f08c379a0000000000000000000000000000000000000000000000000000000008152600401612b199061580c565b60405180910390fd5b60008054906101000a900473ffffffffffffffffffffffffffffffffffffffff1673ffffffffffffffffffffffffffffffffffffffff1663a9059cbb33836040518363ffffffff1660e01b8152600401612b7d9291906155e7565b6020604051808303816000875af1158015612b9c573d6000803e3d6000fd5b505050506040513d601f19601f82011682018060405250810190612bc09190614745565b612bff576040517f08c379a0000000000000000000000000000000000000000000000000000000008152600401612bf6906147be565b60405180910390fd5b8160036000828254612c119190614576565b92505081905550826fffffffffffffffffffffffffffffffff16600760003373ffffffffffffffffffffffffffffffffffffffff1673ffffffffffffffffffffffffffffffffffffffff1681526020019081526020016000206000828254612c799190614576565b9250508190555082600260048282829054906101000a90046fffffffffffffffffffffffffffffffff16612cad919061467b565b92506101000a8154816fffffffffffffffffffffffffffffffff02191690836fffffffffffffffffffffffffffffffff1602179055503373ffffffffffffffffffffffffffffffffffffffff167f8338d96d1ac03fc732036bb25b1469d0568ef83e329cc80df18ec1b705c6fa1d8484604051612d2b92919061582c565b60405180910390a2505050565b612d40613a4b565b600660008381526020019081526020016000206040518060800160405290816000820160009054906101000a900463ffffffff1663ffffffff1663ffffffff1681526020016000820160049054906101000a90046fffffffffffffffffffffffffffffffff166fffffffffffffffffffffffffffffffff166fffffffffffffffffffffffffffffffff1681526020016000820160149054906101000a900460ff161515151581526020016000820160159054906101000a900460ff1615151515815250509050919050565b600460009054906101000a900473ffffffffffffffffffffffffffffffffffffffff1673ffffffffffffffffffffffffffffffffffffffff163373ffffffffffffffffffffffffffffffffffffffff1614612e9b576040517f08c379a0000000000000000000000000000000000000000000000000000000008152600401612e92906158a1565b60405180910390fd5b80600560006101000a81548173ffffffffffffffffffffffffffffffffffffffff021916908373ffffffffffffffffffffffffffffffffffffffff16021790555050565b600460009054906101000a900473ffffffffffffffffffffffffffffffffffffffff1673ffffffffffffffffffffffffffffffffffffffff163373ffffffffffffffffffffffffffffffffffffffff1614612f6f576040517f08c379a0000000000000000000000000000000000000000000000000000000008152600401612f6690614ee5565b60405180910390fd5b60006006600084815260200190815260200160002090508060000160149054906101000a900460ff16612fd7576040517f08c379a0000000000000000000000000000000000000000000000000000000008152600401612fce9061516d565b60405180910390fd5b8060000160159054906101000a900460ff1615613029576040517f08c379a000000000000000000000000000000000000000000000000000000000815260040161302090614f51565b60405180910390fd5b60005b8160000160009054906101000a900463ffffffff1663ffffffff168163ffffffff1610156130c75760006009600086815260200190815260200160002060008363ffffffff1663ffffffff16815260200190815260200160002090508363ffffffff168263ffffffff16036130b95760018160010160106101000a81548160ff0219169083151502179055505b50808060010191505061302c565b5060008160000160146101000a81548160ff02191690831515021790555060018160000160156101000a81548160ff021916908315150217905550505050565b6000613114858585612504565b9050816fffffffffffffffffffffffffffffffff16816fffffffffffffffffffffffffffffffff16101561317d576040517f08c379a00000000000000000000000000000000000000000000000000000000081526004016131749061590d565b60405180910390fd5b60008054906101000a900473ffffffffffffffffffffffffffffffffffffffff1673ffffffffffffffffffffffffffffffffffffffff166323b872dd3330876040518463ffffffff1660e01b81526004016131da939291906152d5565b6020604051808303816000875af11580156131f9573d6000803e3d6000fd5b505050506040513d601f19601f8201168201806040525081019061321d9190614745565b61325c576040517f08c379a0000000000000000000000000000000000000000000000000000000008152600401613253906147be565b60405180910390fd5b6064600260009054906101000a900463ffffffff1663ffffffff168561328291906145aa565b61328c9190614616565b6fffffffffffffffffffffffffffffffff16600360008282546132af9190614647565b9250508190555060008054906101000a900473ffffffffffffffffffffffffffffffffffffffff1673ffffffffffffffffffffffffffffffffffffffff1663a9059cbb600560009054906101000a900473ffffffffffffffffffffffffffffffffffffffff166064600560149054906101000a900463ffffffff1663ffffffff168861333b91906145aa565b6133459190614616565b6040518363ffffffff1660e01b81526004016133629291906146f0565b6020604051808303816000875af1158015613381573d6000803e3d6000fd5b505050506040513d601f19601f820116820180604052508101906133a59190614745565b6133e4576040517f08c379a00000000000000000000000000000000000000000000000000000000081526004016133db90615979565b60405180910390fd5b60006064600560149054906101000a900463ffffffff1663ffffffff168661340c91906145aa565b6134169190614616565b6064600260009054906101000a900463ffffffff1663ffffffff168761343c91906145aa565b6134469190614616565b86613451919061467b565b61345b919061467b565b905061346f6006600988848887600161355f565b816fffffffffffffffffffffffffffffffff166008600088815260200190815260200160002060003373ffffffffffffffffffffffffffffffffffffffff1673ffffffffffffffffffffffffffffffffffffffff16815260200190815260200160002060008663ffffffff1663ffffffff16815260200190815260200160002060008282546134fe9190614647565b925050819055503373ffffffffffffffffffffffffffffffffffffffff167f285fd84012d60ebf3e087ae762bc6298ae35d7dbe0a659a56dd670656c17e65686868560405161354f939291906147de565b60405180910390a2505050505050565b60008760008781526020019081526020016000206040518060800160405290816000820160009054906101000a900463ffffffff1663ffffffff1663ffffffff1681526020016000820160049054906101000a90046fffffffffffffffffffffffffffffffff166fffffffffffffffffffffffffffffffff166fffffffffffffffffffffffffffffffff1681526020016000820160149054906101000a900460ff161515151581526020016000820160159054906101000a900460ff161515151581525050905060008160000151905060005b8163ffffffff168163ffffffff1610156138195760008960008a815260200190815260200160002060008363ffffffff1663ffffffff168152602001908152602001600020905060008160010160009054906101000a90046fffffffffffffffffffffffffffffffff1690508515613759578763ffffffff168363ffffffff160361370d578689826136c49190615225565b6136ce919061467b565b8260010160006101000a8154816fffffffffffffffffffffffffffffffff02191690836fffffffffffffffffffffffffffffffff160217905550613754565b88816137199190615225565b8260010160006101000a8154816fffffffffffffffffffffffffffffffff02191690836fffffffffffffffffffffffffffffffff1602179055505b61380a565b8763ffffffff168363ffffffff16036137c2578887826137799190615225565b613783919061467b565b8260010160006101000a8154816fffffffffffffffffffffffffffffffff02191690836fffffffffffffffffffffffffffffffff160217905550613809565b88816137ce919061467b565b8260010160006101000a8154816fffffffffffffffffffffffffffffffff02191690836fffffffffffffffffffffffffffffffff1602179055505b5b50508080600101915050613632565b50505050505050505050565b606060008460008481526020019081526020016000206040518060800160405290816000820160009054906101000a900463ffffffff1663ffffffff1663ffffffff1681526020016000820160049054906101000a90046fffffffffffffffffffffffffffffffff166fffffffffffffffffffffffffffffffff166fffffffffffffffffffffffffffffffff1681526020016000820160149054906101000a900460ff161515151581526020016000820160159054906101000a900460ff161515151581525050905060008160000151905060008163ffffffff1667ffffffffffffffff81111561391957613918613e6a565b5b6040519080825280602002602001820160405280156139475781602001602082028036833780820191505090505b50905060005b8263ffffffff168163ffffffff161015613a085786600087815260200190815260200160002060008263ffffffff1663ffffffff16815260200190815260200160002060010160009054906101000a90046fffffffffffffffffffffffffffffffff16828263ffffffff16815181106139c9576139c8614b04565b5b60200260200101906fffffffffffffffffffffffffffffffff1690816fffffffffffffffffffffffffffffffff1681525050808060010191505061394d565b508093505050509392505050565b60405180606001604052806060815260200160006fffffffffffffffffffffffffffffffff1681526020016000151581525090565b6040518060800160405280600063ffffffff16815260200160006fffffffffffffffffffffffffffffffff1681526020016000151581526020016000151581525090565b6000604051905090565b600080fd5b600080fd5b600073ffffffffffffffffffffffffffffffffffffffff82169050919050565b6000613ace82613aa3565b9050919050565b613ade81613ac3565b8114613ae957600080fd5b50565b600081359050613afb81613ad5565b92915050565b6000819050919050565b613b1481613b01565b8114613b1f57600080fd5b50565b600081359050613b3181613b0b565b92915050565b600063ffffffff82169050919050565b613b5081613b37565b8114613b5b57600080fd5b50565b600081359050613b6d81613b47565b92915050565b600080600060608486031215613b8c57613b8b613a99565b5b6000613b9a86828701613aec565b9350506020613bab86828701613b22565b9250506040613bbc86828701613b5e565b9150509250925092565b613bcf81613b01565b82525050565b6000602082019050613bea6000830184613bc6565b92915050565b60006fffffffffffffffffffffffffffffffff82169050919050565b613c1581613bf0565b8114613c2057600080fd5b50565b600081359050613c3281613c0c565b92915050565b60008060008060808587031215613c5257613c51613a99565b5b6000613c6087828801613b22565b9450506020613c7187828801613c23565b9350506040613c8287828801613b5e565b9250506060613c9387828801613c23565b91505092959194509250565b600060208284031215613cb557613cb4613a99565b5b6000613cc384828501613aec565b91505092915050565b600060208284031215613ce257613ce1613a99565b5b6000613cf084828501613b5e565b91505092915050565b60008060408385031215613d1057613d0f613a99565b5b6000613d1e85828601613b22565b9250506020613d2f85828601613b5e565b9150509250929050565b600081519050919050565b600082825260208201905092915050565b60005b83811015613d73578082015181840152602081019050613d58565b60008484015250505050565b6000601f19601f8301169050919050565b6000613d9b82613d39565b613da58185613d44565b9350613db5818560208601613d55565b613dbe81613d7f565b840191505092915050565b613dd281613bf0565b82525050565b60008115159050919050565b613ded81613dd8565b82525050565b60006060830160008301518482036000860152613e108282613d90565b9150506020830151613e256020860182613dc9565b506040830151613e386040860182613de4565b508091505092915050565b60006020820190508181036000830152613e5d8184613df3565b905092915050565b600080fd5b7f4e487b7100000000000000000000000000000000000000000000000000000000600052604160045260246000fd5b613ea282613d7f565b810181811067ffffffffffffffff82111715613ec157613ec0613e6a565b5b80604052505050565b6000613ed4613a8f565b9050613ee08282613e99565b919050565b600067ffffffffffffffff821115613f0057613eff613e6a565b5b602082029050602081019050919050565b600080fd5b600080fd5b600067ffffffffffffffff821115613f3657613f35613e6a565b5b613f3f82613d7f565b9050602081019050919050565b82818337600083830152505050565b6000613f6e613f6984613f1b565b613eca565b905082815260208101848484011115613f8a57613f89613f16565b5b613f95848285613f4c565b509392505050565b600082601f830112613fb257613fb1613e65565b5b8135613fc2848260208601613f5b565b91505092915050565b6000613fde613fd984613ee5565b613eca565b9050808382526020820190506020840283018581111561400157614000613f11565b5b835b8181101561404857803567ffffffffffffffff81111561402657614025613e65565b5b8086016140338982613f9d565b85526020850194505050602081019050614003565b5050509392505050565b600082601f83011261406757614066613e65565b5b8135614077848260208601613fcb565b91505092915050565b6000806040838503121561409757614096613a99565b5b600083013567ffffffffffffffff8111156140b5576140b4613a9e565b5b6140c185828601614052565b92505060206140d285828601613c23565b9150509250929050565b6000806000606084860312156140f5576140f4613a99565b5b600061410386828701613b22565b935050602061411486828701613aec565b925050604061412586828701613b5e565b9150509250925092565b61413881613ac3565b82525050565b6000602082019050614153600083018461412f565b92915050565b61416281613bf0565b82525050565b600060208201905061417d6000830184614159565b92915050565b60008060006060848603121561419c5761419b613a99565b5b60006141aa86828701613b22565b93505060206141bb86828701613c23565b92505060406141cc86828701613b5e565b9150509250925092565b6000602082840312156141ec576141eb613a99565b5b60006141fa84828501613c23565b91505092915050565b6000806040838503121561421a57614219613a99565b5b600061422885828601613b22565b925050602061423985828601613c23565b9150509250929050565b60006020828403121561425957614258613a99565b5b600061426784828501613b22565b91505092915050565b600082825260208201905092915050565b600061428c82613d39565b6142968185614270565b93506142a6818560208601613d55565b6142af81613d7f565b840191505092915050565b6142c381613dd8565b82525050565b600060608201905081810360008301526142e38186614281565b90506142f26020830185614159565b6142ff60408301846142ba565b949350505050565b61431081613b37565b82525050565b600060808201905061432b6000830187614307565b6143386020830186614159565b61434560408301856142ba565b61435260608301846142ba565b95945050505050565b6000819050919050565b600061438061437b61437684613aa3565b61435b565b613aa3565b9050919050565b600061439282614365565b9050919050565b60006143a482614387565b9050919050565b6143b481614399565b82525050565b60006020820190506143cf60008301846143ab565b92915050565b60006020820190506143ea6000830184614307565b92915050565b6143f981613b37565b82525050565b60808201600082015161441560008501826143f0565b5060208201516144286020850182613dc9565b50604082015161443b6040850182613de4565b50606082015161444e6060850182613de4565b50505050565b600060808201905061446960008301846143ff565b92915050565b7f53656c6c696e67206d6f7265207468616e206578706563746564000000000000600082015250565b60006144a5601a83614270565b91506144b08261446f565b602082019050919050565b600060208201905081810360008301526144d481614498565b9050919050565b7f496e73756666696369656e742062616c616e6365000000000000000000000000600082015250565b6000614511601483614270565b915061451c826144db565b602082019050919050565b6000602082019050818103600083015261454081614504565b9050919050565b7f4e487b7100000000000000000000000000000000000000000000000000000000600052601160045260246000fd5b600061458182613b01565b915061458c83613b01565b92508282039050818111156145a4576145a3614547565b5b92915050565b60006145b582613bf0565b91506145c083613bf0565b92508282026145ce81613bf0565b91508082146145e0576145df614547565b5b5092915050565b7f4e487b7100000000000000000000000000000000000000000000000000000000600052601260045260246000fd5b600061462182613bf0565b915061462c83613bf0565b92508261463c5761463b6145e7565b5b828204905092915050565b600061465282613b01565b915061465d83613b01565b925082820190508082111561467557614674614547565b5b92915050565b600061468682613bf0565b915061469183613bf0565b925082820390506fffffffffffffffffffffffffffffffff8111156146b9576146b8614547565b5b92915050565b60006146da6146d56146d084613bf0565b61435b565b613b01565b9050919050565b6146ea816146bf565b82525050565b6000604082019050614705600083018561412f565b61471260208301846146e1565b9392505050565b61472281613dd8565b811461472d57600080fd5b50565b60008151905061473f81614719565b92915050565b60006020828403121561475b5761475a613a99565b5b600061476984828501614730565b91505092915050565b7f5472616e73666572206661696c65640000000000000000000000000000000000600082015250565b60006147a8600f83614270565b91506147b382614772565b602082019050919050565b600060208201905081810360008301526147d78161479b565b9050919050565b60006060820190506147f36000830186614159565b6148006020830185614307565b61480d60408301846146e1565b949350505050565b600061482082613b01565b915061482b83613b01565b925082820261483981613b01565b915082820484148315176148505761484f614547565b5b5092915050565b600061486282613b01565b915061486d83613b01565b92508261487d5761487c6145e7565b5b828204905092915050565b7f4f6e6c79206f776e65722063616e207365742066656500000000000000000000600082015250565b60006148be601683614270565b91506148c982614888565b602082019050919050565b600060208201905081810360008301526148ed816148b1565b9050919050565b7f4e487b7100000000000000000000000000000000000000000000000000000000600052602260045260246000fd5b6000600282049050600182168061493b57607f821691505b60208210810361494e5761494d6148f4565b5b50919050565b7f4f7574636f6d65732061727261792063616e6e6f7420626520656d7074790000600082015250565b600061498a601e83614270565b915061499582614954565b602082019050919050565b600060208201905081810360008301526149b98161497d565b9050919050565b7f546f6f206d616e79206f7574636f6d6573000000000000000000000000000000600082015250565b60006149f6601183614270565b9150614a01826149c0565b602082019050919050565b60006020820190508181036000830152614a25816149e9565b9050919050565b7f446561646c696e65206d75737420626520696e20746865206675747572650000600082015250565b6000614a62601e83614270565b9150614a6d82614a2c565b602082019050919050565b60006020820190508181036000830152614a9181614a55565b9050919050565b7f4e6f206c697175696469747920696e2074686520706f6f6c0000000000000000600082015250565b6000614ace601883614270565b9150614ad982614a98565b602082019050919050565b60006020820190508181036000830152614afd81614ac1565b9050919050565b7f4e487b7100000000000000000000000000000000000000000000000000000000600052603260045260246000fd5b60008190508160005260206000209050919050565b60006020601f8301049050919050565b600082821b905092915050565b600060088302614b957fffffffffffffffffffffffffffffffffffffffffffffffffffffffffffffffff82614b58565b614b9f8683614b58565b95508019841693508086168417925050509392505050565b6000614bd2614bcd614bc884613b01565b61435b565b613b01565b9050919050565b6000819050919050565b614bec83614bb7565b614c00614bf882614bd9565b848454614b65565b825550505050565b600090565b614c15614c08565b614c20818484614be3565b505050565b5b81811015614c4457614c39600082614c0d565b600181019050614c26565b5050565b601f821115614c8957614c5a81614b33565b614c6384614b48565b81016020851015614c72578190505b614c86614c7e85614b48565b830182614c25565b50505b505050565b600082821c905092915050565b6000614cac60001984600802614c8e565b1980831691505092915050565b6000614cc58383614c9b565b9150826002028217905092915050565b614cde82613d39565b67ffffffffffffffff811115614cf757614cf6613e6a565b5b614d018254614923565b614d0c828285614c48565b600060209050601f831160018114614d3f5760008415614d2d578287015190505b614d378582614cb9565b865550614d9f565b601f198416614d4d86614b33565b60005b82811015614d7557848901518255600182019150602085019450602081019050614d50565b86831015614d925784890151614d8e601f891682614c9b565b8355505b6001600288020188555050505b505050505050565b600081519050919050565b600082825260208201905092915050565b6000819050602082019050919050565b6000614ddf8383613d90565b905092915050565b6000602082019050919050565b6000614dff82614da7565b614e098185614db2565b935083602082028501614e1b85614dc3565b8060005b85811015614e575784840389528151614e388582614dd3565b9450614e4383614de7565b925060208a01995050600181019050614e1f565b50829750879550505050505092915050565b60006040820190508181036000830152614e838185614df4565b9050614e926020830184614159565b9392505050565b7f4f6e6c79206f776e65722063616e207365742077696e6e657200000000000000600082015250565b6000614ecf601983614270565b9150614eda82614e99565b602082019050919050565b60006020820190508181036000830152614efe81614ec2565b9050919050565b7f4d61726b657420697320616c726561647920736574746c656400000000000000600082015250565b6000614f3b601983614270565b9150614f4682614f05565b602082019050919050565b60006020820190508181036000830152614f6a81614f2e565b9050919050565b7f4f6e6c79206f776e65722063616e207365652074726561737572657200000000600082015250565b6000614fa7601c83614270565b9150614fb282614f71565b602082019050919050565b60006020820190508181036000830152614fd681614f9a565b9050919050565b7f4d75737420626520706f73697469766500000000000000000000000000000000600082015250565b6000615013601083614270565b915061501e82614fdd565b602082019050919050565b6000602082019050818103600083015261504281615006565b9050919050565b7f496e76616c6964206d61726b6574204944000000000000000000000000000000600082015250565b600061507f601183614270565b915061508a82615049565b602082019050919050565b600060208201905081810360008301526150ae81615072565b9050919050565b7f496e76616c6964206f7574636f6d6520696e6465780000000000000000000000600082015250565b60006150eb601583614270565b91506150f6826150b5565b602082019050919050565b6000602082019050818103600083015261511a816150de565b9050919050565b7f4d61726b6574206973206e6f7420616374697665000000000000000000000000600082015250565b6000615157601483614270565b915061516282615121565b602082019050919050565b600060208201905081810360008301526151868161514a565b9050919050565b600061519882613b37565b915063ffffffff82036151ae576151ad614547565b5b600182019050919050565b7f4d7573742068617665206e6f6e2d7a65726f2062616c616e6365730000000000600082015250565b60006151ef601b83614270565b91506151fa826151b9565b602082019050919050565b6000602082019050818103600083015261521e816151e2565b9050919050565b600061523082613bf0565b915061523b83613bf0565b925082820190506fffffffffffffffffffffffffffffffff81111561526357615262614547565b5b92915050565b7f41646465642066756e6473206d75737420626520706f73697469766500000000600082015250565b600061529f601c83614270565b91506152aa82615269565b602082019050919050565b600060208201905081810360008301526152ce81615292565b9050919050565b60006060820190506152ea600083018661412f565b6152f7602083018561412f565b61530460408301846146e1565b949350505050565b600060208201905061532160008301846146e1565b92915050565b7f4f6e6c79206f776e65722063616e2075706461746520646561646c696e650000600082015250565b600061535d601e83614270565b915061536882615327565b602082019050919050565b6000602082019050818103600083015261538c81615350565b9050919050565b7f4f6e6c79206f776e65722063616e2064697361626c65206d61726b6574000000600082015250565b60006153c9601d83614270565b91506153d482615393565b602082019050919050565b600060208201905081810360008301526153f8816153bc565b9050919050565b7f4d61726b657420697320616c72656164792064697361626c6564000000000000600082015250565b6000615435601a83614270565b9150615440826153ff565b602082019050919050565b6000602082019050818103600083015261546481615428565b9050919050565b7f4d61726b6574206973206e6f7420736574746c65640000000000000000000000600082015250565b60006154a1601583614270565b91506154ac8261546b565b602082019050919050565b600060208201905081810360008301526154d081615494565b9050919050565b7f4f7574636f6d65206973206e6f7420612077696e6e6572000000000000000000600082015250565b600061550d601783614270565b9150615518826154d7565b602082019050919050565b6000602082019050818103600083015261553c81615500565b9050919050565b7f4e6f2062616c616e636520746f20636c61696d00000000000000000000000000600082015250565b6000615579601383614270565b915061558482615543565b602082019050919050565b600060208201905081810360008301526155a88161556c565b9050919050565b60006155ba82613b37565b91506155c583613b37565b9250828203905063ffffffff8111156155e1576155e0614547565b5b92915050565b60006040820190506155fc600083018561412f565b6156096020830184613bc6565b9392505050565b7f496e766573746d656e74206d75737420626520706f7369746976650000000000600082015250565b6000615646601b83614270565b915061565182615610565b602082019050919050565b6000602082019050818103600083015261567581615639565b9050919050565b7f46756e6473206d75737420626520706f73697469766500000000000000000000600082015250565b60006156b2601683614270565b91506156bd8261567c565b602082019050919050565b600060208201905081810360008301526156e1816156a5565b9050919050565b7f43616e6e6f742072656d6f7665206d6f7265207468616e20706f6f6c00000000600082015250565b600061571e601c83614270565b9150615729826156e8565b602082019050919050565b6000602082019050818103600083015261574d81615711565b9050919050565b7f496e73756666696369656e742066756e64730000000000000000000000000000600082015250565b600061578a601283614270565b915061579582615754565b602082019050919050565b600060208201905081810360008301526157b98161577d565b9050919050565b7f52657175697265206e6f6e2d7a65726f2062616c616e63657300000000000000600082015250565b60006157f6601983614270565b9150615801826157c0565b602082019050919050565b60006020820190508181036000830152615825816157e9565b9050919050565b600060408201905061584160008301856146e1565b61584e6020830184613bc6565b9392505050565b7f4f6e6c79206f776e65722063616e207365742074726561737572657200000000600082015250565b600061588b601c83614270565b915061589682615855565b602082019050919050565b600060208201905081810360008301526158ba8161587e565b9050919050565b7f526563656976696e67206c657373207468616e20657870656374656400000000600082015250565b60006158f7601c83614270565b9150615902826158c1565b602082019050919050565b60006020820190508181036000830152615926816158ea565b9050919050565b7f5472656173757279207472616e73666572206661696c65640000000000000000600082015250565b6000615963601883614270565b915061596e8261592d565b602082019050919050565b6000602082019050818103600083015261599281615956565b905091905056fea2646970667358221220b955e0c975eb5722fe96f24d7933c67e072f74607296a1f28755c9a229e707bb64736f6c634300081b0033",
  "linkReferences": {},
  "deployedLinkReferences": {}
}